{
  "_format": "hh-sol-artifact-1",
  "contractName": "BaseBookEscrow",
  "sourceName": "contracts/BaseBookEscrow.sol",
  "abi": [
    {
      "inputs": [
        {
          "internalType": "address",
          "name": "_usdcToken",
          "type": "address"
        }
      ],
      "stateMutability": "nonpayable",
      "type": "constructor"
    },
    {
      "inputs": [],
      "name": "AlreadyWithdrawn",
      "type": "error"
    },
    {
      "inputs": [],
      "name": "InsufficientAllowance",
      "type": "error"
    },
    {
      "inputs": [],
      "name": "InvalidAmount",
      "type": "error"
    },
    {
      "inputs": [
        {
          "internalType": "address",
          "name": "owner",
          "type": "address"
        }
      ],
      "name": "OwnableInvalidOwner",
      "type": "error"
    },
    {
      "inputs": [
        {
          "internalType": "address",
          "name": "account",
          "type": "address"
        }
      ],
      "name": "OwnableUnauthorizedAccount",
      "type": "error"
    },
    {
      "inputs": [],
      "name": "ReentrancyGuardReentrantCall",
      "type": "error"
    },
    {
      "inputs": [
        {
          "internalType": "address",
          "name": "token",
          "type": "address"
        }
      ],
      "name": "SafeERC20FailedOperation",
      "type": "error"
    },
    {
      "inputs": [],
      "name": "TransactionNotFound",
      "type": "error"
    },
    {
      "inputs": [],
      "name": "UnauthorizedWithdrawal",
      "type": "error"
    },
    {
      "anonymous": false,
      "inputs": [
        {
          "indexed": true,
          "internalType": "uint256",
          "name": "transactionId",
          "type": "uint256"
        },
        {
          "indexed": true,
          "internalType": "address",
          "name": "sender",
          "type": "address"
        },
        {
          "indexed": false,
          "internalType": "uint256",
          "name": "amount",
          "type": "uint256"
        },
        {
          "indexed": false,
          "internalType": "uint256",
          "name": "timestamp",
          "type": "uint256"
        }
      ],
      "name": "EmergencyWithdrawal",
      "type": "event"
    },
    {
      "anonymous": false,
      "inputs": [
        {
          "indexed": true,
          "internalType": "uint256",
          "name": "transactionId",
          "type": "uint256"
        },
        {
          "indexed": true,
          "internalType": "address",
          "name": "sender",
          "type": "address"
        },
        {
          "indexed": true,
          "internalType": "address",
          "name": "recipient",
          "type": "address"
        },
        {
          "indexed": false,
          "internalType": "uint256",
          "name": "amount",
          "type": "uint256"
        },
        {
          "indexed": false,
          "internalType": "uint256",
          "name": "timestamp",
          "type": "uint256"
        }
      ],
      "name": "FundsDeposited",
      "type": "event"
    },
    {
      "anonymous": false,
      "inputs": [
        {
          "indexed": true,
          "internalType": "uint256",
          "name": "transactionId",
          "type": "uint256"
        },
        {
          "indexed": true,
          "internalType": "address",
          "name": "recipient",
          "type": "address"
        },
        {
          "indexed": false,
          "internalType": "uint256",
          "name": "amount",
          "type": "uint256"
        },
        {
          "indexed": false,
          "internalType": "uint256",
          "name": "timestamp",
          "type": "uint256"
        }
      ],
      "name": "FundsWithdrawn",
      "type": "event"
    },
    {
      "anonymous": false,
      "inputs": [
        {
          "indexed": true,
          "internalType": "address",
          "name": "previousOwner",
          "type": "address"
        },
        {
          "indexed": true,
          "internalType": "address",
          "name": "newOwner",
          "type": "address"
        }
      ],
      "name": "OwnershipTransferred",
      "type": "event"
    },
    {
      "inputs": [
        {
          "internalType": "uint256",
          "name": "transactionId",
          "type": "uint256"
        }
      ],
      "name": "emergencyWithdrawal",
      "outputs": [],
      "stateMutability": "nonpayable",
      "type": "function"
    },
    {
      "inputs": [
        {
          "internalType": "uint256",
          "name": "",
          "type": "uint256"
        }
      ],
      "name": "escrowTransactions",
      "outputs": [
        {
          "internalType": "address",
          "name": "sender",
          "type": "address"
        },
        {
          "internalType": "address",
          "name": "recipient",
          "type": "address"
        },
        {
          "internalType": "uint256",
          "name": "amount",
          "type": "uint256"
        },
        {
          "internalType": "uint256",
          "name": "timestamp",
          "type": "uint256"
        },
        {
          "internalType": "bool",
          "name": "isWithdrawn",
          "type": "bool"
        },
        {
          "internalType": "bool",
          "name": "exists",
          "type": "bool"
        }
      ],
      "stateMutability": "view",
      "type": "function"
    },
    {
      "inputs": [],
      "name": "getContractBalance",
      "outputs": [
        {
          "internalType": "uint256",
          "name": "",
          "type": "uint256"
        }
      ],
      "stateMutability": "view",
      "type": "function"
    },
    {
      "inputs": [
        {
          "internalType": "address",
          "name": "recipient",
          "type": "address"
        }
      ],
      "name": "getRecipientTransactions",
      "outputs": [
        {
          "internalType": "uint256[]",
          "name": "",
          "type": "uint256[]"
        }
      ],
      "stateMutability": "view",
      "type": "function"
    },
    {
      "inputs": [
        {
          "internalType": "address",
          "name": "sender",
          "type": "address"
        }
      ],
      "name": "getSenderTransactions",
      "outputs": [
        {
          "internalType": "uint256[]",
          "name": "",
          "type": "uint256[]"
        }
      ],
      "stateMutability": "view",
      "type": "function"
    },
    {
      "inputs": [
        {
          "internalType": "uint256",
          "name": "transactionId",
          "type": "uint256"
        }
      ],
      "name": "getTransaction",
      "outputs": [
        {
          "components": [
            {
              "internalType": "address",
              "name": "sender",
              "type": "address"
            },
            {
              "internalType": "address",
              "name": "recipient",
              "type": "address"
            },
            {
              "internalType": "uint256",
              "name": "amount",
              "type": "uint256"
            },
            {
              "internalType": "uint256",
              "name": "timestamp",
              "type": "uint256"
            },
            {
              "internalType": "bool",
              "name": "isWithdrawn",
              "type": "bool"
            },
            {
              "internalType": "bool",
              "name": "exists",
              "type": "bool"
            }
          ],
          "internalType": "struct BaseBookEscrow.EscrowTransaction",
          "name": "",
          "type": "tuple"
        }
      ],
      "stateMutability": "view",
      "type": "function"
    },
    {
      "inputs": [],
      "name": "getTransactionCounter",
      "outputs": [
        {
          "internalType": "uint256",
          "name": "",
          "type": "uint256"
        }
      ],
      "stateMutability": "view",
      "type": "function"
    },
    {
      "inputs": [
        {
          "internalType": "uint256",
          "name": "transactionId",
          "type": "uint256"
        },
        {
          "internalType": "address",
          "name": "recipient",
          "type": "address"
        }
      ],
      "name": "isWithdrawable",
      "outputs": [
        {
          "internalType": "bool",
          "name": "",
          "type": "bool"
        }
      ],
      "stateMutability": "view",
      "type": "function"
    },
    {
      "inputs": [],
      "name": "owner",
      "outputs": [
        {
          "internalType": "address",
          "name": "",
          "type": "address"
        }
      ],
      "stateMutability": "view",
      "type": "function"
    },
    {
      "inputs": [
        {
          "internalType": "address",
          "name": "token",
          "type": "address"
        },
        {
          "internalType": "uint256",
          "name": "amount",
          "type": "uint256"
        }
      ],
      "name": "ownerEmergencyWithdraw",
      "outputs": [],
      "stateMutability": "nonpayable",
      "type": "function"
    },
    {
      "inputs": [
        {
          "internalType": "address",
          "name": "",
          "type": "address"
        },
        {
          "internalType": "uint256",
          "name": "",
          "type": "uint256"
        }
      ],
      "name": "recipientTransactions",
      "outputs": [
        {
          "internalType": "uint256",
          "name": "",
          "type": "uint256"
        }
      ],
      "stateMutability": "view",
      "type": "function"
    },
    {
      "inputs": [],
      "name": "renounceOwnership",
      "outputs": [],
      "stateMutability": "nonpayable",
      "type": "function"
    },
    {
      "inputs": [
        {
          "internalType": "address",
          "name": "recipient",
          "type": "address"
        },
        {
          "internalType": "uint256",
          "name": "amount",
          "type": "uint256"
        }
      ],
      "name": "sendFunds",
      "outputs": [
        {
          "internalType": "uint256",
          "name": "transactionId",
          "type": "uint256"
        }
      ],
      "stateMutability": "nonpayable",
      "type": "function"
    },
    {
      "inputs": [
        {
          "internalType": "address",
          "name": "",
          "type": "address"
        },
        {
          "internalType": "uint256",
          "name": "",
          "type": "uint256"
        }
      ],
      "name": "senderTransactions",
      "outputs": [
        {
          "internalType": "uint256",
          "name": "",
          "type": "uint256"
        }
      ],
      "stateMutability": "view",
      "type": "function"
    },
    {
      "inputs": [
        {
          "internalType": "address",
          "name": "newOwner",
          "type": "address"
        }
      ],
      "name": "transferOwnership",
      "outputs": [],
      "stateMutability": "nonpayable",
      "type": "function"
    },
    {
      "inputs": [],
      "name": "usdcToken",
      "outputs": [
        {
          "internalType": "contract IERC20",
          "name": "",
          "type": "address"
        }
      ],
      "stateMutability": "view",
      "type": "function"
    },
    {
      "inputs": [
        {
          "internalType": "uint256",
          "name": "transactionId",
          "type": "uint256"
        }
      ],
      "name": "withdrawFunds",
      "outputs": [],
      "stateMutability": "nonpayable",
      "type": "function"
    }
  ],
  "bytecode": "0x60a060405234801561001057600080fd5b5060405161126a38038061126a83398101604081905261002f91610136565b6001600055338061005b57604051631e4fbdf760e01b8152600060048201526024015b60405180910390fd5b610064816100e4565b506001600160a01b0381166100ce5760405162461bcd60e51b815260206004820152602a60248201527f42617365426f6f6b457363726f773a20496e76616c6964205553444320746f6b604482015269656e206164647265737360b01b6064820152608401610052565b6001600160a01b03166080526000600255610166565b600180546001600160a01b038381166001600160a01b0319831681179093556040519116919082907f8be0079c531659141344cd1fd0a4f28419497f9722a3daafe3b4186f6b6457e090600090a35050565b60006020828403121561014857600080fd5b81516001600160a01b038116811461015f57600080fd5b9392505050565b6080516110c66101a460003960008181610129015281816104e30152818161062501528181610a4301528181610ae60152610c7301526110c66000f3fe608060405234801561001057600080fd5b506004361061010a5760003560e01c80636719d530116100a25780638da5cb5b116100715780638da5cb5b146102855780639a35740c146102965780639f2b0505146102a9578063cf1e37ad146102bc578063f2fde38b1461034e57600080fd5b80636719d5301461024f5780636f64234e146102625780636f9fb98a14610275578063715018a61461027d57600080fd5b80632dd1b86b116100de5780632dd1b86b1461018e57806333ea3dc8146101a057806344155d611461020c5780635976a8381461022f57600080fd5b806239522c1461010f57806311eac85514610124578063155dd5ee1461016857806320b9c0ba1461017b575b600080fd5b61012261011d366004610f44565b610361565b005b61014b7f000000000000000000000000000000000000000000000000000000000000000081565b6040516001600160a01b0390911681526020015b60405180910390f35b610122610176366004610f44565b610572565b610122610189366004610f79565b6106a5565b6002545b60405190815260200161015f565b6101b36101ae366004610f44565b6106d7565b60405161015f919081516001600160a01b03908116825260208084015190911690820152604080830151908201526060808301519082015260808083015115159082015260a09182015115159181019190915260c00190565b61021f61021a366004610fa3565b6107af565b604051901515815260200161015f565b61024261023d366004610fcf565b610854565b60405161015f9190610ff1565b61024261025d366004610fcf565b6108c0565b610192610270366004610f79565b61092a565b610192610c5b565b610122610ceb565b6001546001600160a01b031661014b565b6101926102a4366004610f79565b610cff565b6101926102b7366004610f79565b610d30565b6103126102ca366004610f44565b6003602081905260009182526040909120805460018201546002830154938301546004909301546001600160a01b039283169492909116929060ff8082169161010090041686565b604080516001600160a01b03978816815296909516602087015293850192909252606084015215156080830152151560a082015260c00161015f565b61012261035c366004610fcf565b610d4c565b610369610d87565b60008181526003602052604090206004810154610100900460ff166103a1576040516331fb878f60e01b815260040160405180910390fd5b600481015460ff16156103c757604051636507689f60e01b815260040160405180910390fd5b80546001600160a01b031633146104405760405162461bcd60e51b815260206004820152603260248201527f42617365426f6f6b457363726f773a204f6e6c792073656e6465722063616e20604482015271656d657267656e637920776974686472617760701b60648201526084015b60405180910390fd5b60038101546104529062278d0061104b565b4210156104c75760405162461bcd60e51b815260206004820152603760248201527f42617365426f6f6b457363726f773a20456d657267656e63792077697468647260448201527f6177616c206f6e6c7920616674657220333020646179730000000000000000006064820152608401610437565b60048101805460ff1916600117905580546002820154610516917f00000000000000000000000000000000000000000000000000000000000000006001600160a01b0390811692911690610db1565b80546002820154604080519182524260208301526001600160a01b039092169184917f031c413119638e1546e0a8462ca13a676244fe27ba1ffedc67c741eb1616077e91015b60405180910390a35061056f6001600055565b50565b61057a610d87565b60008181526003602052604090206004810154610100900460ff166105b2576040516331fb878f60e01b815260040160405180910390fd5b600481015460ff16156105d857604051636507689f60e01b815260040160405180910390fd5b60018101546001600160a01b03163314610605576040516360b39bc560e01b815260040160405180910390fd5b60048101805460ff191660019081179091558101546002820154610658917f00000000000000000000000000000000000000000000000000000000000000006001600160a01b0390811692911690610db1565b60018101546002820154604080519182524260208301526001600160a01b039092169184917f3dbb1a26f29aef1264c12ca1285deb60cca5666d8b17100c7ea1602c0a4014f6910161055c565b6106ad610e15565b6106d36106c26001546001600160a01b031690565b6001600160a01b0384169083610db1565b5050565b6040805160c081018252600080825260208201819052918101829052606081018290526080810182905260a0810191909152600082815260036020526040902060040154610100900460ff16610740576040516331fb878f60e01b815260040160405180910390fd5b50600090815260036020818152604092839020835160c08101855281546001600160a01b0390811682526001830154169281019290925260028101549382019390935290820154606082015260049091015460ff8082161515608084015261010090910416151560a082015290565b6000828152600360208181526040808420815160c08101835281546001600160a01b0390811682526001830154169381019390935260028101549183019190915291820154606082015260049091015460ff808216151560808401526101009091041615801560a083018190529061082957508060800151155b801561084a5750826001600160a01b031681602001516001600160a01b0316145b9150505b92915050565b6001600160a01b0381166000908152600460209081526040918290208054835181840281018401909452808452606093928301828280156108b457602002820191906000526020600020905b8154815260200190600101908083116108a0575b50505050509050919050565b6001600160a01b0381166000908152600560209081526040918290208054835181840281018401909452808452606093928301828280156108b457602002820191906000526020600020908154815260200190600101908083116108a05750505050509050919050565b6000610934610d87565b816000036109555760405163162908e360e11b815260040160405180910390fd5b6001600160a01b0383166109bd5760405162461bcd60e51b815260206004820152602960248201527f42617365426f6f6b457363726f773a20496e76616c696420726563697069656e60448201526874206164647265737360b81b6064820152608401610437565b336001600160a01b03841603610a255760405162461bcd60e51b815260206004820152602760248201527f42617365426f6f6b457363726f773a2043616e6e6f742073656e6420746f207960448201526637bab939b2b63360c91b6064820152608401610437565b604051636eb1769f60e11b81523360048201523060248201526000907f00000000000000000000000000000000000000000000000000000000000000006001600160a01b03169063dd62ed3e90604401602060405180830381865afa158015610a92573d6000803e3d6000fd5b505050506040513d601f19601f82011682018060405250810190610ab6919061105e565b905082811015610ad9576040516313be252b60e01b815260040160405180910390fd5b610b0e6001600160a01b037f000000000000000000000000000000000000000000000000000000000000000016333086610e42565b600260008154610b1d90611077565b91829055506040805160c081018252338082526001600160a01b0388811660208085018281528587018b81524260608801818152600060808a01818152600160a08c018181528e84526003808a528e85209d518e54908d166001600160a01b0319918216178f5598518e8401805491909d16991698909817909a55945160028c01559151948a01949094555160049889018054975115156101000261ff00199215159290921661ffff1990981697909717179095558582529582528681208054808801825590825282822001889055828152600582528681208054968701815581522090930185905592519395509092909185917f3d423aae28e39cac21d8d8c5f4b0bb7d7476df8fcc4e53e433c750774ac0e46f91610c4891899190918252602082015260400190565b60405180910390a45061084e6001600055565b6040516370a0823160e01b81523060048201526000907f00000000000000000000000000000000000000000000000000000000000000006001600160a01b0316906370a0823190602401602060405180830381865afa158015610cc2573d6000803e3d6000fd5b505050506040513d601f19601f82011682018060405250810190610ce6919061105e565b905090565b610cf3610e15565b610cfd6000610e81565b565b60056020528160005260406000208181548110610d1b57600080fd5b90600052602060002001600091509150505481565b60046020528160005260406000208181548110610d1b57600080fd5b610d54610e15565b6001600160a01b038116610d7e57604051631e4fbdf760e01b815260006004820152602401610437565b61056f81610e81565b600260005403610daa57604051633ee5aeb560e01b815260040160405180910390fd5b6002600055565b6040516001600160a01b03838116602483015260448201839052610e1091859182169063a9059cbb906064015b604051602081830303815290604052915060e01b6020820180516001600160e01b038381831617835250505050610ed3565b505050565b6001546001600160a01b03163314610cfd5760405163118cdaa760e01b8152336004820152602401610437565b6040516001600160a01b038481166024830152838116604483015260648201839052610e7b9186918216906323b872dd90608401610dde565b50505050565b600180546001600160a01b038381166001600160a01b0319831681179093556040519116919082907f8be0079c531659141344cd1fd0a4f28419497f9722a3daafe3b4186f6b6457e090600090a35050565b600080602060008451602086016000885af180610ef6576040513d6000823e3d81fd5b50506000513d91508115610f0e578060011415610f1b565b6001600160a01b0384163b155b15610e7b57604051635274afe760e01b81526001600160a01b0385166004820152602401610437565b600060208284031215610f5657600080fd5b5035919050565b80356001600160a01b0381168114610f7457600080fd5b919050565b60008060408385031215610f8c57600080fd5b610f9583610f5d565b946020939093013593505050565b60008060408385031215610fb657600080fd5b82359150610fc660208401610f5d565b90509250929050565b600060208284031215610fe157600080fd5b610fea82610f5d565b9392505050565b6020808252825182820181905260009190848201906040850190845b818110156110295783518352928401929184019160010161100d565b50909695505050505050565b634e487b7160e01b600052601160045260246000fd5b8082018082111561084e5761084e611035565b60006020828403121561107057600080fd5b5051919050565b60006001820161108957611089611035565b506001019056fea26469706673582212207386a896edf0decc18525ba6376baee2186de25cf9d8ca21c18d94859abb89d864736f6c63430008140033",
  "linkReferences": {},
  "deployedLinkReferences": {}
}