{
  "_format": "hh-sol-artifact-1",
  "contractName": "MockUSDC",
  "sourceName": "contracts/MockUSDC.sol",
  "abi": [
    {
      "inputs": [],
      "stateMutability": "nonpayable",
      "type": "constructor"
    },
    {
      "inputs": [
        {
          "internalType": "address",
          "name": "spender",
          "type": "address"
        },
        {
          "internalType": "uint256",
          "name": "allowance",
          "type": "uint256"
        },
        {
          "internalType": "uint256",
          "name": "needed",
          "type": "uint256"
        }
      ],
      "name": "ERC20InsufficientAllowance",
      "type": "error"
    },
    {
      "inputs": [
        {
          "internalType": "address",
          "name": "sender",
          "type": "address"
        },
        {
          "internalType": "uint256",
          "name": "balance",
          "type": "uint256"
        },
        {
          "internalType": "uint256",
          "name": "needed",
          "type": "uint256"
        }
      ],
      "name": "ERC20InsufficientBalance",
      "type": "error"
    },
    {
      "inputs": [
        {
          "internalType": "address",
          "name": "approver",
          "type": "address"
        }
      ],
      "name": "ERC20InvalidApprover",
      "type": "error"
    },
    {
      "inputs": [
        {
          "internalType": "address",
          "name": "receiver",
          "type": "address"
        }
      ],
      "name": "ERC20InvalidReceiver",
      "type": "error"
    },
    {
      "inputs": [
        {
          "internalType": "address",
          "name": "sender",
          "type": "address"
        }
      ],
      "name": "ERC20InvalidSender",
      "type": "error"
    },
    {
      "inputs": [
        {
          "internalType": "address",
          "name": "spender",
          "type": "address"
        }
      ],
      "name": "ERC20InvalidSpender",
      "type": "error"
    },
    {
      "inputs": [
        {
          "internalType": "address",
          "name": "owner",
          "type": "address"
        }
      ],
      "name": "OwnableInvalidOwner",
      "type": "error"
    },
    {
      "inputs": [
        {
          "internalType": "address",
          "name": "account",
          "type": "address"
        }
      ],
      "name": "OwnableUnauthorizedAccount",
      "type": "error"
    },
    {
      "anonymous": false,
      "inputs": [
        {
          "indexed": true,
          "internalType": "address",
          "name": "owner",
          "type": "address"
        },
        {
          "indexed": true,
          "internalType": "address",
          "name": "spender",
          "type": "address"
        },
        {
          "indexed": false,
          "internalType": "uint256",
          "name": "value",
          "type": "uint256"
        }
      ],
      "name": "Approval",
      "type": "event"
    },
    {
      "anonymous": false,
      "inputs": [
        {
          "indexed": true,
          "internalType": "address",
          "name": "previousOwner",
          "type": "address"
        },
        {
          "indexed": true,
          "internalType": "address",
          "name": "newOwner",
          "type": "address"
        }
      ],
      "name": "OwnershipTransferred",
      "type": "event"
    },
    {
      "anonymous": false,
      "inputs": [
        {
          "indexed": true,
          "internalType": "address",
          "name": "from",
          "type": "address"
        },
        {
          "indexed": true,
          "internalType": "address",
          "name": "to",
          "type": "address"
        },
        {
          "indexed": false,
          "internalType": "uint256",
          "name": "value",
          "type": "uint256"
        }
      ],
      "name": "Transfer",
      "type": "event"
    },
    {
      "inputs": [
        {
          "internalType": "address",
          "name": "owner",
          "type": "address"
        },
        {
          "internalType": "address",
          "name": "spender",
          "type": "address"
        }
      ],
      "name": "allowance",
      "outputs": [
        {
          "internalType": "uint256",
          "name": "",
          "type": "uint256"
        }
      ],
      "stateMutability": "view",
      "type": "function"
    },
    {
      "inputs": [
        {
          "internalType": "address",
          "name": "spender",
          "type": "address"
        },
        {
          "internalType": "uint256",
          "name": "value",
          "type": "uint256"
        }
      ],
      "name": "approve",
      "outputs": [
        {
          "internalType": "bool",
          "name": "",
          "type": "bool"
        }
      ],
      "stateMutability": "nonpayable",
      "type": "function"
    },
    {
      "inputs": [
        {
          "internalType": "address",
          "name": "account",
          "type": "address"
        }
      ],
      "name": "balanceOf",
      "outputs": [
        {
          "internalType": "uint256",
          "name": "",
          "type": "uint256"
        }
      ],
      "stateMutability": "view",
      "type": "function"
    },
    {
      "inputs": [
        {
          "internalType": "uint256",
          "name": "amount",
          "type": "uint256"
        }
      ],
      "name": "burn",
      "outputs": [],
      "stateMutability": "nonpayable",
      "type": "function"
    },
    {
      "inputs": [],
      "name": "decimals",
      "outputs": [
        {
          "internalType": "uint8",
          "name": "",
          "type": "uint8"
        }
      ],
      "stateMutability": "view",
      "type": "function"
    },
    {
      "inputs": [
        {
          "internalType": "uint256",
          "name": "amount",
          "type": "uint256"
        }
      ],
      "name": "faucet",
      "outputs": [],
      "stateMutability": "nonpayable",
      "type": "function"
    },
    {
      "inputs": [
        {
          "internalType": "address",
          "name": "to",
          "type": "address"
        },
        {
          "internalType": "uint256",
          "name": "amount",
          "type": "uint256"
        }
      ],
      "name": "mint",
      "outputs": [],
      "stateMutability": "nonpayable",
      "type": "function"
    },
    {
      "inputs": [],
      "name": "name",
      "outputs": [
        {
          "internalType": "string",
          "name": "",
          "type": "string"
        }
      ],
      "stateMutability": "view",
      "type": "function"
    },
    {
      "inputs": [],
      "name": "owner",
      "outputs": [
        {
          "internalType": "address",
          "name": "",
          "type": "address"
        }
      ],
      "stateMutability": "view",
      "type": "function"
    },
    {
      "inputs": [],
      "name": "renounceOwnership",
      "outputs": [],
      "stateMutability": "nonpayable",
      "type": "function"
    },
    {
      "inputs": [],
      "name": "symbol",
      "outputs": [
        {
          "internalType": "string",
          "name": "",
          "type": "string"
        }
      ],
      "stateMutability": "view",
      "type": "function"
    },
    {
      "inputs": [],
      "name": "totalSupply",
      "outputs": [
        {
          "internalType": "uint256",
          "name": "",
          "type": "uint256"
        }
      ],
      "stateMutability": "view",
      "type": "function"
    },
    {
      "inputs": [
        {
          "internalType": "address",
          "name": "to",
          "type": "address"
        },
        {
          "internalType": "uint256",
          "name": "value",
          "type": "uint256"
        }
      ],
      "name": "transfer",
      "outputs": [
        {
          "internalType": "bool",
          "name": "",
          "type": "bool"
        }
      ],
      "stateMutability": "nonpayable",
      "type": "function"
    },
    {
      "inputs": [
        {
          "internalType": "address",
          "name": "from",
          "type": "address"
        },
        {
          "internalType": "address",
          "name": "to",
          "type": "address"
        },
        {
          "internalType": "uint256",
          "name": "value",
          "type": "uint256"
        }
      ],
      "name": "transferFrom",
      "outputs": [
        {
          "internalType": "bool",
          "name": "",
          "type": "bool"
        }
      ],
      "stateMutability": "nonpayable",
      "type": "function"
    },
    {
      "inputs": [
        {
          "internalType": "address",
          "name": "newOwner",
          "type": "address"
        }
      ],
      "name": "transferOwnership",
      "outputs": [],
      "stateMutability": "nonpayable",
      "type": "function"
    }
  ],
  "bytecode": "0x60806040523480156200001157600080fd5b50336040518060400160405280600d81526020016c26b7b1b5902aa9a21021b7b4b760991b815250604051806040016040528060058152602001644d5553444360d81b81525081600390816200006891906200036d565b5060046200007782826200036d565b5050506001600160a01b038116620000aa57604051631e4fbdf760e01b8152600060048201526024015b60405180910390fd5b620000b58162000105565b506005805460ff60a01b1916600360a11b1790819055620000ff903390620000ea9060ff600160a01b90910416600a6200054e565b620000f990620f424062000566565b62000157565b62000596565b600580546001600160a01b038381166001600160a01b0319831681179093556040519116919082907f8be0079c531659141344cd1fd0a4f28419497f9722a3daafe3b4186f6b6457e090600090a35050565b6001600160a01b038216620001835760405163ec442f0560e01b815260006004820152602401620000a1565b620001916000838362000195565b5050565b6001600160a01b038316620001c4578060026000828254620001b8919062000580565b90915550620002389050565b6001600160a01b03831660009081526020819052604090205481811015620002195760405163391434e360e21b81526001600160a01b03851660048201526024810182905260448101839052606401620000a1565b6001600160a01b03841660009081526020819052604090209082900390555b6001600160a01b038216620002565760028054829003905562000275565b6001600160a01b03821660009081526020819052604090208054820190555b816001600160a01b0316836001600160a01b03167fddf252ad1be2c89b69c2b068fc378daa952ba7f163c4a11628f55a4df523b3ef83604051620002bb91815260200190565b60405180910390a3505050565b634e487b7160e01b600052604160045260246000fd5b600181811c90821680620002f357607f821691505b6020821081036200031457634e487b7160e01b600052602260045260246000fd5b50919050565b601f8211156200036857600081815260208120601f850160051c81016020861015620003435750805b601f850160051c820191505b8181101562000364578281556001016200034f565b5050505b505050565b81516001600160401b03811115620003895762000389620002c8565b620003a1816200039a8454620002de565b846200031a565b602080601f831160018114620003d95760008415620003c05750858301515b600019600386901b1c1916600185901b17855562000364565b600085815260208120601f198616915b828110156200040a57888601518255948401946001909101908401620003e9565b5085821015620004295787850151600019600388901b60f8161c191681555b5050505050600190811b01905550565b634e487b7160e01b600052601160045260246000fd5b600181815b808511156200049057816000190482111562000474576200047462000439565b808516156200048257918102915b93841c939080029062000454565b509250929050565b600082620004a95750600162000548565b81620004b85750600062000548565b8160018114620004d15760028114620004dc57620004fc565b600191505062000548565b60ff841115620004f057620004f062000439565b50506001821b62000548565b5060208310610133831016604e8410600b841016171562000521575081810a62000548565b6200052d83836200044f565b806000190482111562000544576200054462000439565b0290505b92915050565b60006200055f60ff84168362000498565b9392505050565b808202811582820484141762000548576200054862000439565b8082018082111562000548576200054862000439565b610b1a80620005a66000396000f3fe608060405234801561001057600080fd5b50600436106100f55760003560e01c8063579158971161009757806395d89b411161006657806395d89b4114610206578063a9059cbb1461020e578063dd62ed3e14610221578063f2fde38b1461025a57600080fd5b806357915897146101a757806370a08231146101ba578063715018a6146101e35780638da5cb5b146101eb57600080fd5b806323b872dd116100d357806323b872dd1461014d578063313ce5671461016057806340c10f191461017f57806342966c681461019457600080fd5b806306fdde03146100fa578063095ea7b31461011857806318160ddd1461013b575b600080fd5b61010261026d565b60405161010f9190610839565b60405180910390f35b61012b6101263660046108a3565b6102ff565b604051901515815260200161010f565b6002545b60405190815260200161010f565b61012b61015b3660046108cd565b610319565b600554600160a01b900460ff1660405160ff909116815260200161010f565b61019261018d3660046108a3565b61033d565b005b6101926101a2366004610909565b610353565b6101926101b5366004610909565b610360565b61013f6101c8366004610922565b6001600160a01b031660009081526020819052604090205490565b6101926103f3565b6005546040516001600160a01b03909116815260200161010f565b610102610407565b61012b61021c3660046108a3565b610416565b61013f61022f366004610944565b6001600160a01b03918216600090815260016020908152604080832093909416825291909152205490565b610192610268366004610922565b610424565b60606003805461027c90610977565b80601f01602080910402602001604051908101604052809291908181526020018280546102a890610977565b80156102f55780601f106102ca576101008083540402835291602001916102f5565b820191906000526020600020905b8154815290600101906020018083116102d857829003601f168201915b5050505050905090565b60003361030d81858561045f565b60019150505b92915050565b600033610327858285610471565b6103328585856104f0565b506001949350505050565b61034561054f565b61034f828261057c565b5050565b61035d33826105b2565b50565b60055461037890600160a01b900460ff16600a610aab565b610384906103e8610aba565b8111156103e95760405162461bcd60e51b815260206004820152602860248201527f4d6f636b555344433a204d61782031303030204d55534443207065722066617560448201526718d95d0818d85b1b60c21b60648201526084015b60405180910390fd5b61035d338261057c565b6103fb61054f565b61040560006105e8565b565b60606004805461027c90610977565b60003361030d8185856104f0565b61042c61054f565b6001600160a01b03811661045657604051631e4fbdf760e01b8152600060048201526024016103e0565b61035d816105e8565b61046c838383600161063a565b505050565b6001600160a01b038381166000908152600160209081526040808320938616835292905220546000198110156104ea57818110156104db57604051637dc7a0d960e11b81526001600160a01b038416600482015260248101829052604481018390526064016103e0565b6104ea8484848403600061063a565b50505050565b6001600160a01b03831661051a57604051634b637e8f60e11b8152600060048201526024016103e0565b6001600160a01b0382166105445760405163ec442f0560e01b8152600060048201526024016103e0565b61046c83838361070f565b6005546001600160a01b031633146104055760405163118cdaa760e01b81523360048201526024016103e0565b6001600160a01b0382166105a65760405163ec442f0560e01b8152600060048201526024016103e0565b61034f6000838361070f565b6001600160a01b0382166105dc57604051634b637e8f60e11b8152600060048201526024016103e0565b61034f8260008361070f565b600580546001600160a01b038381166001600160a01b0319831681179093556040519116919082907f8be0079c531659141344cd1fd0a4f28419497f9722a3daafe3b4186f6b6457e090600090a35050565b6001600160a01b0384166106645760405163e602df0560e01b8152600060048201526024016103e0565b6001600160a01b03831661068e57604051634a1406b160e11b8152600060048201526024016103e0565b6001600160a01b03808516600090815260016020908152604080832093871683529290522082905580156104ea57826001600160a01b0316846001600160a01b03167f8c5be1e5ebec7d5bd14f71427d1e84f3dd0314c0f7b2291e5b200ac8c7c3b9258460405161070191815260200190565b60405180910390a350505050565b6001600160a01b03831661073a57806002600082825461072f9190610ad1565b909155506107ac9050565b6001600160a01b0383166000908152602081905260409020548181101561078d5760405163391434e360e21b81526001600160a01b038516600482015260248101829052604481018390526064016103e0565b6001600160a01b03841660009081526020819052604090209082900390555b6001600160a01b0382166107c8576002805482900390556107e7565b6001600160a01b03821660009081526020819052604090208054820190555b816001600160a01b0316836001600160a01b03167fddf252ad1be2c89b69c2b068fc378daa952ba7f163c4a11628f55a4df523b3ef8360405161082c91815260200190565b60405180910390a3505050565b600060208083528351808285015260005b818110156108665785810183015185820160400152820161084a565b506000604082860101526040601f19601f8301168501019250505092915050565b80356001600160a01b038116811461089e57600080fd5b919050565b600080604083850312156108b657600080fd5b6108bf83610887565b946020939093013593505050565b6000806000606084860312156108e257600080fd5b6108eb84610887565b92506108f960208501610887565b9150604084013590509250925092565b60006020828403121561091b57600080fd5b5035919050565b60006020828403121561093457600080fd5b61093d82610887565b9392505050565b6000806040838503121561095757600080fd5b61096083610887565b915061096e60208401610887565b90509250929050565b600181811c9082168061098b57607f821691505b6020821081036109ab57634e487b7160e01b600052602260045260246000fd5b50919050565b634e487b7160e01b600052601160045260246000fd5b600181815b80851115610a025781600019048211156109e8576109e86109b1565b808516156109f557918102915b93841c93908002906109cc565b509250929050565b600082610a1957506001610313565b81610a2657506000610313565b8160018114610a3c5760028114610a4657610a62565b6001915050610313565b60ff841115610a5757610a576109b1565b50506001821b610313565b5060208310610133831016604e8410600b8410161715610a85575081810a610313565b610a8f83836109c7565b8060001904821115610aa357610aa36109b1565b029392505050565b600061093d60ff841683610a0a565b8082028115828204841417610313576103136109b1565b80820180821115610313576103136109b156fea2646970667358221220651c5deef60927164f00de366cb0fcc3407b7f838ae7cad937c5812fd415577564736f6c63430008140033",
  "linkReferences": {},
  "deployedLinkReferences": {}
}