{
  "contracts/BaseBookEscrow.sol": {
    "BaseBookEscrow": {
      "abi": [
        {
          "inputs": [
            {
              "internalType": "address",
              "name": "_usdcToken",
              "type": "address"
            }
          ],
          "stateMutability": "nonpayable",
          "type": "constructor"
        },
        {
          "inputs": [],
          "name": "AlreadyWithdrawn",
          "type": "error"
        },
        {
          "inputs": [],
          "name": "InsufficientAllowance",
          "type": "error"
        },
        {
          "inputs": [],
          "name": "InvalidAmount",
          "type": "error"
        },
        {
          "inputs": [
            {
              "internalType": "address",
              "name": "owner",
              "type": "address"
            }
          ],
          "name": "OwnableInvalidOwner",
          "type": "error"
        },
        {
          "inputs": [
            {
              "internalType": "address",
              "name": "account",
              "type": "address"
            }
          ],
          "name": "OwnableUnauthorizedAccount",
          "type": "error"
        },
        {
          "inputs": [],
          "name": "ReentrancyGuardReentrantCall",
          "type": "error"
        },
        {
          "inputs": [
            {
              "internalType": "address",
              "name": "token",
              "type": "address"
            }
          ],
          "name": "SafeERC20FailedOperation",
          "type": "error"
        },
        {
          "inputs": [],
          "name": "TransactionNotFound",
          "type": "error"
        },
        {
          "inputs": [],
          "name": "UnauthorizedWithdrawal",
          "type": "error"
        },
        {
          "anonymous": false,
          "inputs": [
            {
              "indexed": true,
              "internalType": "uint256",
              "name": "transactionId",
              "type": "uint256"
            },
            {
              "indexed": true,
              "internalType": "address",
              "name": "sender",
              "type": "address"
            },
            {
              "indexed": false,
              "internalType": "uint256",
              "name": "amount",
              "type": "uint256"
            },
            {
              "indexed": false,
              "internalType": "uint256",
              "name": "timestamp",
              "type": "uint256"
            }
          ],
          "name": "EmergencyWithdrawal",
          "type": "event"
        },
        {
          "anonymous": false,
          "inputs": [
            {
              "indexed": true,
              "internalType": "uint256",
              "name": "transactionId",
              "type": "uint256"
            },
            {
              "indexed": true,
              "internalType": "address",
              "name": "sender",
              "type": "address"
            },
            {
              "indexed": true,
              "internalType": "address",
              "name": "recipient",
              "type": "address"
            },
            {
              "indexed": false,
              "internalType": "uint256",
              "name": "amount",
              "type": "uint256"
            },
            {
              "indexed": false,
              "internalType": "uint256",
              "name": "timestamp",
              "type": "uint256"
            }
          ],
          "name": "FundsDeposited",
          "type": "event"
        },
        {
          "anonymous": false,
          "inputs": [
            {
              "indexed": true,
              "internalType": "uint256",
              "name": "transactionId",
              "type": "uint256"
            },
            {
              "indexed": true,
              "internalType": "address",
              "name": "recipient",
              "type": "address"
            },
            {
              "indexed": false,
              "internalType": "uint256",
              "name": "amount",
              "type": "uint256"
            },
            {
              "indexed": false,
              "internalType": "uint256",
              "name": "timestamp",
              "type": "uint256"
            }
          ],
          "name": "FundsWithdrawn",
          "type": "event"
        },
        {
          "anonymous": false,
          "inputs": [
            {
              "indexed": true,
              "internalType": "address",
              "name": "previousOwner",
              "type": "address"
            },
            {
              "indexed": true,
              "internalType": "address",
              "name": "newOwner",
              "type": "address"
            }
          ],
          "name": "OwnershipTransferred",
          "type": "event"
        },
        {
          "inputs": [
            {
              "internalType": "uint256",
              "name": "transactionId",
              "type": "uint256"
            }
          ],
          "name": "emergencyWithdrawal",
          "outputs": [],
          "stateMutability": "nonpayable",
          "type": "function"
        },
        {
          "inputs": [
            {
              "internalType": "uint256",
              "name": "",
              "type": "uint256"
            }
          ],
          "name": "escrowTransactions",
          "outputs": [
            {
              "internalType": "address",
              "name": "sender",
              "type": "address"
            },
            {
              "internalType": "address",
              "name": "recipient",
              "type": "address"
            },
            {
              "internalType": "uint256",
              "name": "amount",
              "type": "uint256"
            },
            {
              "internalType": "uint256",
              "name": "timestamp",
              "type": "uint256"
            },
            {
              "internalType": "bool",
              "name": "isWithdrawn",
              "type": "bool"
            },
            {
              "internalType": "bool",
              "name": "exists",
              "type": "bool"
            }
          ],
          "stateMutability": "view",
          "type": "function"
        },
        {
          "inputs": [],
          "name": "getContractBalance",
          "outputs": [
            {
              "internalType": "uint256",
              "name": "",
              "type": "uint256"
            }
          ],
          "stateMutability": "view",
          "type": "function"
        },
        {
          "inputs": [
            {
              "internalType": "address",
              "name": "recipient",
              "type": "address"
            }
          ],
          "name": "getRecipientTransactions",
          "outputs": [
            {
              "internalType": "uint256[]",
              "name": "",
              "type": "uint256[]"
            }
          ],
          "stateMutability": "view",
          "type": "function"
        },
        {
          "inputs": [
            {
              "internalType": "address",
              "name": "sender",
              "type": "address"
            }
          ],
          "name": "getSenderTransactions",
          "outputs": [
            {
              "internalType": "uint256[]",
              "name": "",
              "type": "uint256[]"
            }
          ],
          "stateMutability": "view",
          "type": "function"
        },
        {
          "inputs": [
            {
              "internalType": "uint256",
              "name": "transactionId",
              "type": "uint256"
            }
          ],
          "name": "getTransaction",
          "outputs": [
            {
              "components": [
                {
                  "internalType": "address",
                  "name": "sender",
                  "type": "address"
                },
                {
                  "internalType": "address",
                  "name": "recipient",
                  "type": "address"
                },
                {
                  "internalType": "uint256",
                  "name": "amount",
                  "type": "uint256"
                },
                {
                  "internalType": "uint256",
                  "name": "timestamp",
                  "type": "uint256"
                },
                {
                  "internalType": "bool",
                  "name": "isWithdrawn",
                  "type": "bool"
                },
                {
                  "internalType": "bool",
                  "name": "exists",
                  "type": "bool"
                }
              ],
              "internalType": "struct BaseBookEscrow.EscrowTransaction",
              "name": "",
              "type": "tuple"
            }
          ],
          "stateMutability": "view",
          "type": "function"
        },
        {
          "inputs": [],
          "name": "getTransactionCounter",
          "outputs": [
            {
              "internalType": "uint256",
              "name": "",
              "type": "uint256"
            }
          ],
          "stateMutability": "view",
          "type": "function"
        },
        {
          "inputs": [
            {
              "internalType": "uint256",
              "name": "transactionId",
              "type": "uint256"
            },
            {
              "internalType": "address",
              "name": "recipient",
              "type": "address"
            }
          ],
          "name": "isWithdrawable",
          "outputs": [
            {
              "internalType": "bool",
              "name": "",
              "type": "bool"
            }
          ],
          "stateMutability": "view",
          "type": "function"
        },
        {
          "inputs": [],
          "name": "owner",
          "outputs": [
            {
              "internalType": "address",
              "name": "",
              "type": "address"
            }
          ],
          "stateMutability": "view",
          "type": "function"
        },
        {
          "inputs": [
            {
              "internalType": "address",
              "name": "token",
              "type": "address"
            },
            {
              "internalType": "uint256",
              "name": "amount",
              "type": "uint256"
            }
          ],
          "name": "ownerEmergencyWithdraw",
          "outputs": [],
          "stateMutability": "nonpayable",
          "type": "function"
        },
        {
          "inputs": [
            {
              "internalType": "address",
              "name": "",
              "type": "address"
            },
            {
              "internalType": "uint256",
              "name": "",
              "type": "uint256"
            }
          ],
          "name": "recipientTransactions",
          "outputs": [
            {
              "internalType": "uint256",
              "name": "",
              "type": "uint256"
            }
          ],
          "stateMutability": "view",
          "type": "function"
        },
        {
          "inputs": [],
          "name": "renounceOwnership",
          "outputs": [],
          "stateMutability": "nonpayable",
          "type": "function"
        },
        {
          "inputs": [
            {
              "internalType": "address",
              "name": "recipient",
              "type": "address"
            },
            {
              "internalType": "uint256",
              "name": "amount",
              "type": "uint256"
            }
          ],
          "name": "sendFunds",
          "outputs": [
            {
              "internalType": "uint256",
              "name": "transactionId",
              "type": "uint256"
            }
          ],
          "stateMutability": "nonpayable",
          "type": "function"
        },
        {
          "inputs": [
            {
              "internalType": "address",
              "name": "",
              "type": "address"
            },
            {
              "internalType": "uint256",
              "name": "",
              "type": "uint256"
            }
          ],
          "name": "senderTransactions",
          "outputs": [
            {
              "internalType": "uint256",
              "name": "",
              "type": "uint256"
            }
          ],
          "stateMutability": "view",
          "type": "function"
        },
        {
          "inputs": [
            {
              "internalType": "address",
              "name": "newOwner",
              "type": "address"
            }
          ],
          "name": "transferOwnership",
          "outputs": [],
          "stateMutability": "nonpayable",
          "type": "function"
        },
        {
          "inputs": [],
          "name": "usdcToken",
          "outputs": [
            {
              "internalType": "contract IERC20",
              "name": "",
              "type": "address"
            }
          ],
          "stateMutability": "view",
          "type": "function"
        },
        {
          "inputs": [
            {
              "internalType": "uint256",
              "name": "transactionId",
              "type": "uint256"
            }
          ],
          "name": "withdrawFunds",
          "outputs": [],
          "stateMutability": "nonpayable",
          "type": "function"
        }
      ],
      "evm": {
        "bytecode": {
          "linkReferences": {},
          "object": "60a060405234801561001057600080fd5b5060405161126a38038061126a83398101604081905261002f91610136565b6001600055338061005b57604051631e4fbdf760e01b8152600060048201526024015b60405180910390fd5b610064816100e4565b506001600160a01b0381166100ce5760405162461bcd60e51b815260206004820152602a60248201527f42617365426f6f6b457363726f773a20496e76616c6964205553444320746f6b604482015269656e206164647265737360b01b6064820152608401610052565b6001600160a01b03166080526000600255610166565b600180546001600160a01b038381166001600160a01b0319831681179093556040519116919082907f8be0079c531659141344cd1fd0a4f28419497f9722a3daafe3b4186f6b6457e090600090a35050565b60006020828403121561014857600080fd5b81516001600160a01b038116811461015f57600080fd5b9392505050565b6080516110c66101a460003960008181610129015281816104e30152818161062501528181610a4301528181610ae60152610c7301526110c66000f3fe608060405234801561001057600080fd5b506004361061010a5760003560e01c80636719d530116100a25780638da5cb5b116100715780638da5cb5b146102855780639a35740c146102965780639f2b0505146102a9578063cf1e37ad146102bc578063f2fde38b1461034e57600080fd5b80636719d5301461024f5780636f64234e146102625780636f9fb98a14610275578063715018a61461027d57600080fd5b80632dd1b86b116100de5780632dd1b86b1461018e57806333ea3dc8146101a057806344155d611461020c5780635976a8381461022f57600080fd5b806239522c1461010f57806311eac85514610124578063155dd5ee1461016857806320b9c0ba1461017b575b600080fd5b61012261011d366004610f44565b610361565b005b61014b7f000000000000000000000000000000000000000000000000000000000000000081565b6040516001600160a01b0390911681526020015b60405180910390f35b610122610176366004610f44565b610572565b610122610189366004610f79565b6106a5565b6002545b60405190815260200161015f565b6101b36101ae366004610f44565b6106d7565b60405161015f919081516001600160a01b03908116825260208084015190911690820152604080830151908201526060808301519082015260808083015115159082015260a09182015115159181019190915260c00190565b61021f61021a366004610fa3565b6107af565b604051901515815260200161015f565b61024261023d366004610fcf565b610854565b60405161015f9190610ff1565b61024261025d366004610fcf565b6108c0565b610192610270366004610f79565b61092a565b610192610c5b565b610122610ceb565b6001546001600160a01b031661014b565b6101926102a4366004610f79565b610cff565b6101926102b7366004610f79565b610d30565b6103126102ca366004610f44565b6003602081905260009182526040909120805460018201546002830154938301546004909301546001600160a01b039283169492909116929060ff8082169161010090041686565b604080516001600160a01b03978816815296909516602087015293850192909252606084015215156080830152151560a082015260c00161015f565b61012261035c366004610fcf565b610d4c565b610369610d87565b60008181526003602052604090206004810154610100900460ff166103a1576040516331fb878f60e01b815260040160405180910390fd5b600481015460ff16156103c757604051636507689f60e01b815260040160405180910390fd5b80546001600160a01b031633146104405760405162461bcd60e51b815260206004820152603260248201527f42617365426f6f6b457363726f773a204f6e6c792073656e6465722063616e20604482015271656d657267656e637920776974686472617760701b60648201526084015b60405180910390fd5b60038101546104529062278d0061104b565b4210156104c75760405162461bcd60e51b815260206004820152603760248201527f42617365426f6f6b457363726f773a20456d657267656e63792077697468647260448201527f6177616c206f6e6c7920616674657220333020646179730000000000000000006064820152608401610437565b60048101805460ff1916600117905580546002820154610516917f00000000000000000000000000000000000000000000000000000000000000006001600160a01b0390811692911690610db1565b80546002820154604080519182524260208301526001600160a01b039092169184917f031c413119638e1546e0a8462ca13a676244fe27ba1ffedc67c741eb1616077e91015b60405180910390a35061056f6001600055565b50565b61057a610d87565b60008181526003602052604090206004810154610100900460ff166105b2576040516331fb878f60e01b815260040160405180910390fd5b600481015460ff16156105d857604051636507689f60e01b815260040160405180910390fd5b60018101546001600160a01b03163314610605576040516360b39bc560e01b815260040160405180910390fd5b60048101805460ff191660019081179091558101546002820154610658917f00000000000000000000000000000000000000000000000000000000000000006001600160a01b0390811692911690610db1565b60018101546002820154604080519182524260208301526001600160a01b039092169184917f3dbb1a26f29aef1264c12ca1285deb60cca5666d8b17100c7ea1602c0a4014f6910161055c565b6106ad610e15565b6106d36106c26001546001600160a01b031690565b6001600160a01b0384169083610db1565b5050565b6040805160c081018252600080825260208201819052918101829052606081018290526080810182905260a0810191909152600082815260036020526040902060040154610100900460ff16610740576040516331fb878f60e01b815260040160405180910390fd5b50600090815260036020818152604092839020835160c08101855281546001600160a01b0390811682526001830154169281019290925260028101549382019390935290820154606082015260049091015460ff8082161515608084015261010090910416151560a082015290565b6000828152600360208181526040808420815160c08101835281546001600160a01b0390811682526001830154169381019390935260028101549183019190915291820154606082015260049091015460ff808216151560808401526101009091041615801560a083018190529061082957508060800151155b801561084a5750826001600160a01b031681602001516001600160a01b0316145b9150505b92915050565b6001600160a01b0381166000908152600460209081526040918290208054835181840281018401909452808452606093928301828280156108b457602002820191906000526020600020905b8154815260200190600101908083116108a0575b50505050509050919050565b6001600160a01b0381166000908152600560209081526040918290208054835181840281018401909452808452606093928301828280156108b457602002820191906000526020600020908154815260200190600101908083116108a05750505050509050919050565b6000610934610d87565b816000036109555760405163162908e360e11b815260040160405180910390fd5b6001600160a01b0383166109bd5760405162461bcd60e51b815260206004820152602960248201527f42617365426f6f6b457363726f773a20496e76616c696420726563697069656e60448201526874206164647265737360b81b6064820152608401610437565b336001600160a01b03841603610a255760405162461bcd60e51b815260206004820152602760248201527f42617365426f6f6b457363726f773a2043616e6e6f742073656e6420746f207960448201526637bab939b2b63360c91b6064820152608401610437565b604051636eb1769f60e11b81523360048201523060248201526000907f00000000000000000000000000000000000000000000000000000000000000006001600160a01b03169063dd62ed3e90604401602060405180830381865afa158015610a92573d6000803e3d6000fd5b505050506040513d601f19601f82011682018060405250810190610ab6919061105e565b905082811015610ad9576040516313be252b60e01b815260040160405180910390fd5b610b0e6001600160a01b037f000000000000000000000000000000000000000000000000000000000000000016333086610e42565b600260008154610b1d90611077565b91829055506040805160c081018252338082526001600160a01b0388811660208085018281528587018b81524260608801818152600060808a01818152600160a08c018181528e84526003808a528e85209d518e54908d166001600160a01b0319918216178f5598518e8401805491909d16991698909817909a55945160028c01559151948a01949094555160049889018054975115156101000261ff00199215159290921661ffff1990981697909717179095558582529582528681208054808801825590825282822001889055828152600582528681208054968701815581522090930185905592519395509092909185917f3d423aae28e39cac21d8d8c5f4b0bb7d7476df8fcc4e53e433c750774ac0e46f91610c4891899190918252602082015260400190565b60405180910390a45061084e6001600055565b6040516370a0823160e01b81523060048201526000907f00000000000000000000000000000000000000000000000000000000000000006001600160a01b0316906370a0823190602401602060405180830381865afa158015610cc2573d6000803e3d6000fd5b505050506040513d601f19601f82011682018060405250810190610ce6919061105e565b905090565b610cf3610e15565b610cfd6000610e81565b565b60056020528160005260406000208181548110610d1b57600080fd5b90600052602060002001600091509150505481565b60046020528160005260406000208181548110610d1b57600080fd5b610d54610e15565b6001600160a01b038116610d7e57604051631e4fbdf760e01b815260006004820152602401610437565b61056f81610e81565b600260005403610daa57604051633ee5aeb560e01b815260040160405180910390fd5b6002600055565b6040516001600160a01b03838116602483015260448201839052610e1091859182169063a9059cbb906064015b604051602081830303815290604052915060e01b6020820180516001600160e01b038381831617835250505050610ed3565b505050565b6001546001600160a01b03163314610cfd5760405163118cdaa760e01b8152336004820152602401610437565b6040516001600160a01b038481166024830152838116604483015260648201839052610e7b9186918216906323b872dd90608401610dde565b50505050565b600180546001600160a01b038381166001600160a01b0319831681179093556040519116919082907f8be0079c531659141344cd1fd0a4f28419497f9722a3daafe3b4186f6b6457e090600090a35050565b600080602060008451602086016000885af180610ef6576040513d6000823e3d81fd5b50506000513d91508115610f0e578060011415610f1b565b6001600160a01b0384163b155b15610e7b57604051635274afe760e01b81526001600160a01b0385166004820152602401610437565b600060208284031215610f5657600080fd5b5035919050565b80356001600160a01b0381168114610f7457600080fd5b919050565b60008060408385031215610f8c57600080fd5b610f9583610f5d565b946020939093013593505050565b60008060408385031215610fb657600080fd5b82359150610fc660208401610f5d565b90509250929050565b600060208284031215610fe157600080fd5b610fea82610f5d565b9392505050565b6020808252825182820181905260009190848201906040850190845b818110156110295783518352928401929184019160010161100d565b50909695505050505050565b634e487b7160e01b600052601160045260246000fd5b8082018082111561084e5761084e611035565b60006020828403121561107057600080fd5b5051919050565b60006001820161108957611089611035565b506001019056fea26469706673582212207386a896edf0decc18525ba6376baee2186de25cf9d8ca21c18d94859abb89d864736f6c63430008140033",
          "opcodes": "PUSH1 0xA0 PUSH1 0x40 MSTORE CALLVALUE DUP1 ISZERO PUSH2 0x10 JUMPI PUSH1 0x0 DUP1 REVERT JUMPDEST POP PUSH1 0x40 MLOAD PUSH2 0x126A CODESIZE SUB DUP1 PUSH2 0x126A DUP4 CODECOPY DUP2 ADD PUSH1 0x40 DUP2 SWAP1 MSTORE PUSH2 0x2F SWAP2 PUSH2 0x136 JUMP JUMPDEST PUSH1 0x1 PUSH1 0x0 SSTORE CALLER DUP1 PUSH2 0x5B JUMPI PUSH1 0x40 MLOAD PUSH4 0x1E4FBDF7 PUSH1 0xE0 SHL DUP2 MSTORE PUSH1 0x0 PUSH1 0x4 DUP3 ADD MSTORE PUSH1 0x24 ADD JUMPDEST PUSH1 0x40 MLOAD DUP1 SWAP2 SUB SWAP1 REVERT JUMPDEST PUSH2 0x64 DUP2 PUSH2 0xE4 JUMP JUMPDEST POP PUSH1 0x1 PUSH1 0x1 PUSH1 0xA0 SHL SUB DUP2 AND PUSH2 0xCE JUMPI PUSH1 0x40 MLOAD PUSH3 0x461BCD PUSH1 0xE5 SHL DUP2 MSTORE PUSH1 0x20 PUSH1 0x4 DUP3 ADD MSTORE PUSH1 0x2A PUSH1 0x24 DUP3 ADD MSTORE PUSH32 0x42617365426F6F6B457363726F773A20496E76616C6964205553444320746F6B PUSH1 0x44 DUP3 ADD MSTORE PUSH10 0x656E2061646472657373 PUSH1 0xB0 SHL PUSH1 0x64 DUP3 ADD MSTORE PUSH1 0x84 ADD PUSH2 0x52 JUMP JUMPDEST PUSH1 0x1 PUSH1 0x1 PUSH1 0xA0 SHL SUB AND PUSH1 0x80 MSTORE PUSH1 0x0 PUSH1 0x2 SSTORE PUSH2 0x166 JUMP JUMPDEST PUSH1 0x1 DUP1 SLOAD PUSH1 0x1 PUSH1 0x1 PUSH1 0xA0 SHL SUB DUP4 DUP2 AND PUSH1 0x1 PUSH1 0x1 PUSH1 0xA0 SHL SUB NOT DUP4 AND DUP2 OR SWAP1 SWAP4 SSTORE PUSH1 0x40 MLOAD SWAP2 AND SWAP2 SWAP1 DUP3 SWAP1 PUSH32 0x8BE0079C531659141344CD1FD0A4F28419497F9722A3DAAFE3B4186F6B6457E0 SWAP1 PUSH1 0x0 SWAP1 LOG3 POP POP JUMP JUMPDEST PUSH1 0x0 PUSH1 0x20 DUP3 DUP5 SUB SLT ISZERO PUSH2 0x148 JUMPI PUSH1 0x0 DUP1 REVERT JUMPDEST DUP2 MLOAD PUSH1 0x1 PUSH1 0x1 PUSH1 0xA0 SHL SUB DUP2 AND DUP2 EQ PUSH2 0x15F JUMPI PUSH1 0x0 DUP1 REVERT JUMPDEST SWAP4 SWAP3 POP POP POP JUMP JUMPDEST PUSH1 0x80 MLOAD PUSH2 0x10C6 PUSH2 0x1A4 PUSH1 0x0 CODECOPY PUSH1 0x0 DUP2 DUP2 PUSH2 0x129 ADD MSTORE DUP2 DUP2 PUSH2 0x4E3 ADD MSTORE DUP2 DUP2 PUSH2 0x625 ADD MSTORE DUP2 DUP2 PUSH2 0xA43 ADD MSTORE DUP2 DUP2 PUSH2 0xAE6 ADD MSTORE PUSH2 0xC73 ADD MSTORE PUSH2 0x10C6 PUSH1 0x0 RETURN INVALID PUSH1 0x80 PUSH1 0x40 MSTORE CALLVALUE DUP1 ISZERO PUSH2 0x10 JUMPI PUSH1 0x0 DUP1 REVERT JUMPDEST POP PUSH1 0x4 CALLDATASIZE LT PUSH2 0x10A JUMPI PUSH1 0x0 CALLDATALOAD PUSH1 0xE0 SHR DUP1 PUSH4 0x6719D530 GT PUSH2 0xA2 JUMPI DUP1 PUSH4 0x8DA5CB5B GT PUSH2 0x71 JUMPI DUP1 PUSH4 0x8DA5CB5B EQ PUSH2 0x285 JUMPI DUP1 PUSH4 0x9A35740C EQ PUSH2 0x296 JUMPI DUP1 PUSH4 0x9F2B0505 EQ PUSH2 0x2A9 JUMPI DUP1 PUSH4 0xCF1E37AD EQ PUSH2 0x2BC JUMPI DUP1 PUSH4 0xF2FDE38B EQ PUSH2 0x34E JUMPI PUSH1 0x0 DUP1 REVERT JUMPDEST DUP1 PUSH4 0x6719D530 EQ PUSH2 0x24F JUMPI DUP1 PUSH4 0x6F64234E EQ PUSH2 0x262 JUMPI DUP1 PUSH4 0x6F9FB98A EQ PUSH2 0x275 JUMPI DUP1 PUSH4 0x715018A6 EQ PUSH2 0x27D JUMPI PUSH1 0x0 DUP1 REVERT JUMPDEST DUP1 PUSH4 0x2DD1B86B GT PUSH2 0xDE JUMPI DUP1 PUSH4 0x2DD1B86B EQ PUSH2 0x18E JUMPI DUP1 PUSH4 0x33EA3DC8 EQ PUSH2 0x1A0 JUMPI DUP1 PUSH4 0x44155D61 EQ PUSH2 0x20C JUMPI DUP1 PUSH4 0x5976A838 EQ PUSH2 0x22F JUMPI PUSH1 0x0 DUP1 REVERT JUMPDEST DUP1 PUSH3 0x39522C EQ PUSH2 0x10F JUMPI DUP1 PUSH4 0x11EAC855 EQ PUSH2 0x124 JUMPI DUP1 PUSH4 0x155DD5EE EQ PUSH2 0x168 JUMPI DUP1 PUSH4 0x20B9C0BA EQ PUSH2 0x17B JUMPI JUMPDEST PUSH1 0x0 DUP1 REVERT JUMPDEST PUSH2 0x122 PUSH2 0x11D CALLDATASIZE PUSH1 0x4 PUSH2 0xF44 JUMP JUMPDEST PUSH2 0x361 JUMP JUMPDEST STOP JUMPDEST PUSH2 0x14B PUSH32 0x0 DUP2 JUMP JUMPDEST PUSH1 0x40 MLOAD PUSH1 0x1 PUSH1 0x1 PUSH1 0xA0 SHL SUB SWAP1 SWAP2 AND DUP2 MSTORE PUSH1 0x20 ADD JUMPDEST PUSH1 0x40 MLOAD DUP1 SWAP2 SUB SWAP1 RETURN JUMPDEST PUSH2 0x122 PUSH2 0x176 CALLDATASIZE PUSH1 0x4 PUSH2 0xF44 JUMP JUMPDEST PUSH2 0x572 JUMP JUMPDEST PUSH2 0x122 PUSH2 0x189 CALLDATASIZE PUSH1 0x4 PUSH2 0xF79 JUMP JUMPDEST PUSH2 0x6A5 JUMP JUMPDEST PUSH1 0x2 SLOAD JUMPDEST PUSH1 0x40 MLOAD SWAP1 DUP2 MSTORE PUSH1 0x20 ADD PUSH2 0x15F JUMP JUMPDEST PUSH2 0x1B3 PUSH2 0x1AE CALLDATASIZE PUSH1 0x4 PUSH2 0xF44 JUMP JUMPDEST PUSH2 0x6D7 JUMP JUMPDEST PUSH1 0x40 MLOAD PUSH2 0x15F SWAP2 SWAP1 DUP2 MLOAD PUSH1 0x1 PUSH1 0x1 PUSH1 0xA0 SHL SUB SWAP1 DUP2 AND DUP3 MSTORE PUSH1 0x20 DUP1 DUP5 ADD MLOAD SWAP1 SWAP2 AND SWAP1 DUP3 ADD MSTORE PUSH1 0x40 DUP1 DUP4 ADD MLOAD SWAP1 DUP3 ADD MSTORE PUSH1 0x60 DUP1 DUP4 ADD MLOAD SWAP1 DUP3 ADD MSTORE PUSH1 0x80 DUP1 DUP4 ADD MLOAD ISZERO ISZERO SWAP1 DUP3 ADD MSTORE PUSH1 0xA0 SWAP2 DUP3 ADD MLOAD ISZERO ISZERO SWAP2 DUP2 ADD SWAP2 SWAP1 SWAP2 MSTORE PUSH1 0xC0 ADD SWAP1 JUMP JUMPDEST PUSH2 0x21F PUSH2 0x21A CALLDATASIZE PUSH1 0x4 PUSH2 0xFA3 JUMP JUMPDEST PUSH2 0x7AF JUMP JUMPDEST PUSH1 0x40 MLOAD SWAP1 ISZERO ISZERO DUP2 MSTORE PUSH1 0x20 ADD PUSH2 0x15F JUMP JUMPDEST PUSH2 0x242 PUSH2 0x23D CALLDATASIZE PUSH1 0x4 PUSH2 0xFCF JUMP JUMPDEST PUSH2 0x854 JUMP JUMPDEST PUSH1 0x40 MLOAD PUSH2 0x15F SWAP2 SWAP1 PUSH2 0xFF1 JUMP JUMPDEST PUSH2 0x242 PUSH2 0x25D CALLDATASIZE PUSH1 0x4 PUSH2 0xFCF JUMP JUMPDEST PUSH2 0x8C0 JUMP JUMPDEST PUSH2 0x192 PUSH2 0x270 CALLDATASIZE PUSH1 0x4 PUSH2 0xF79 JUMP JUMPDEST PUSH2 0x92A JUMP JUMPDEST PUSH2 0x192 PUSH2 0xC5B JUMP JUMPDEST PUSH2 0x122 PUSH2 0xCEB JUMP JUMPDEST PUSH1 0x1 SLOAD PUSH1 0x1 PUSH1 0x1 PUSH1 0xA0 SHL SUB AND PUSH2 0x14B JUMP JUMPDEST PUSH2 0x192 PUSH2 0x2A4 CALLDATASIZE PUSH1 0x4 PUSH2 0xF79 JUMP JUMPDEST PUSH2 0xCFF JUMP JUMPDEST PUSH2 0x192 PUSH2 0x2B7 CALLDATASIZE PUSH1 0x4 PUSH2 0xF79 JUMP JUMPDEST PUSH2 0xD30 JUMP JUMPDEST PUSH2 0x312 PUSH2 0x2CA CALLDATASIZE PUSH1 0x4 PUSH2 0xF44 JUMP JUMPDEST PUSH1 0x3 PUSH1 0x20 DUP2 SWAP1 MSTORE PUSH1 0x0 SWAP2 DUP3 MSTORE PUSH1 0x40 SWAP1 SWAP2 KECCAK256 DUP1 SLOAD PUSH1 0x1 DUP3 ADD SLOAD PUSH1 0x2 DUP4 ADD SLOAD SWAP4 DUP4 ADD SLOAD PUSH1 0x4 SWAP1 SWAP4 ADD SLOAD PUSH1 0x1 PUSH1 0x1 PUSH1 0xA0 SHL SUB SWAP3 DUP4 AND SWAP5 SWAP3 SWAP1 SWAP2 AND SWAP3 SWAP1 PUSH1 0xFF DUP1 DUP3 AND SWAP2 PUSH2 0x100 SWAP1 DIV AND DUP7 JUMP JUMPDEST PUSH1 0x40 DUP1 MLOAD PUSH1 0x1 PUSH1 0x1 PUSH1 0xA0 SHL SUB SWAP8 DUP9 AND DUP2 MSTORE SWAP7 SWAP1 SWAP6 AND PUSH1 0x20 DUP8 ADD MSTORE SWAP4 DUP6 ADD SWAP3 SWAP1 SWAP3 MSTORE PUSH1 0x60 DUP5 ADD MSTORE ISZERO ISZERO PUSH1 0x80 DUP4 ADD MSTORE ISZERO ISZERO PUSH1 0xA0 DUP3 ADD MSTORE PUSH1 0xC0 ADD PUSH2 0x15F JUMP JUMPDEST PUSH2 0x122 PUSH2 0x35C CALLDATASIZE PUSH1 0x4 PUSH2 0xFCF JUMP JUMPDEST PUSH2 0xD4C JUMP JUMPDEST PUSH2 0x369 PUSH2 0xD87 JUMP JUMPDEST PUSH1 0x0 DUP2 DUP2 MSTORE PUSH1 0x3 PUSH1 0x20 MSTORE PUSH1 0x40 SWAP1 KECCAK256 PUSH1 0x4 DUP2 ADD SLOAD PUSH2 0x100 SWAP1 DIV PUSH1 0xFF AND PUSH2 0x3A1 JUMPI PUSH1 0x40 MLOAD PUSH4 0x31FB878F PUSH1 0xE0 SHL DUP2 MSTORE PUSH1 0x4 ADD PUSH1 0x40 MLOAD DUP1 SWAP2 SUB SWAP1 REVERT JUMPDEST PUSH1 0x4 DUP2 ADD SLOAD PUSH1 0xFF AND ISZERO PUSH2 0x3C7 JUMPI PUSH1 0x40 MLOAD PUSH4 0x6507689F PUSH1 0xE0 SHL DUP2 MSTORE PUSH1 0x4 ADD PUSH1 0x40 MLOAD DUP1 SWAP2 SUB SWAP1 REVERT JUMPDEST DUP1 SLOAD PUSH1 0x1 PUSH1 0x1 PUSH1 0xA0 SHL SUB AND CALLER EQ PUSH2 0x440 JUMPI PUSH1 0x40 MLOAD PUSH3 0x461BCD PUSH1 0xE5 SHL DUP2 MSTORE PUSH1 0x20 PUSH1 0x4 DUP3 ADD MSTORE PUSH1 0x32 PUSH1 0x24 DUP3 ADD MSTORE PUSH32 0x42617365426F6F6B457363726F773A204F6E6C792073656E6465722063616E20 PUSH1 0x44 DUP3 ADD MSTORE PUSH18 0x656D657267656E6379207769746864726177 PUSH1 0x70 SHL PUSH1 0x64 DUP3 ADD MSTORE PUSH1 0x84 ADD JUMPDEST PUSH1 0x40 MLOAD DUP1 SWAP2 SUB SWAP1 REVERT JUMPDEST PUSH1 0x3 DUP2 ADD SLOAD PUSH2 0x452 SWAP1 PUSH3 0x278D00 PUSH2 0x104B JUMP JUMPDEST TIMESTAMP LT ISZERO PUSH2 0x4C7 JUMPI PUSH1 0x40 MLOAD PUSH3 0x461BCD PUSH1 0xE5 SHL DUP2 MSTORE PUSH1 0x20 PUSH1 0x4 DUP3 ADD MSTORE PUSH1 0x37 PUSH1 0x24 DUP3 ADD MSTORE PUSH32 0x42617365426F6F6B457363726F773A20456D657267656E637920776974686472 PUSH1 0x44 DUP3 ADD MSTORE PUSH32 0x6177616C206F6E6C792061667465722033302064617973000000000000000000 PUSH1 0x64 DUP3 ADD MSTORE PUSH1 0x84 ADD PUSH2 0x437 JUMP JUMPDEST PUSH1 0x4 DUP2 ADD DUP1 SLOAD PUSH1 0xFF NOT AND PUSH1 0x1 OR SWAP1 SSTORE DUP1 SLOAD PUSH1 0x2 DUP3 ADD SLOAD PUSH2 0x516 SWAP2 PUSH32 0x0 PUSH1 0x1 PUSH1 0x1 PUSH1 0xA0 SHL SUB SWAP1 DUP2 AND SWAP3 SWAP2 AND SWAP1 PUSH2 0xDB1 JUMP JUMPDEST DUP1 SLOAD PUSH1 0x2 DUP3 ADD SLOAD PUSH1 0x40 DUP1 MLOAD SWAP2 DUP3 MSTORE TIMESTAMP PUSH1 0x20 DUP4 ADD MSTORE PUSH1 0x1 PUSH1 0x1 PUSH1 0xA0 SHL SUB SWAP1 SWAP3 AND SWAP2 DUP5 SWAP2 PUSH32 0x31C413119638E1546E0A8462CA13A676244FE27BA1FFEDC67C741EB1616077E SWAP2 ADD JUMPDEST PUSH1 0x40 MLOAD DUP1 SWAP2 SUB SWAP1 LOG3 POP PUSH2 0x56F PUSH1 0x1 PUSH1 0x0 SSTORE JUMP JUMPDEST POP JUMP JUMPDEST PUSH2 0x57A PUSH2 0xD87 JUMP JUMPDEST PUSH1 0x0 DUP2 DUP2 MSTORE PUSH1 0x3 PUSH1 0x20 MSTORE PUSH1 0x40 SWAP1 KECCAK256 PUSH1 0x4 DUP2 ADD SLOAD PUSH2 0x100 SWAP1 DIV PUSH1 0xFF AND PUSH2 0x5B2 JUMPI PUSH1 0x40 MLOAD PUSH4 0x31FB878F PUSH1 0xE0 SHL DUP2 MSTORE PUSH1 0x4 ADD PUSH1 0x40 MLOAD DUP1 SWAP2 SUB SWAP1 REVERT JUMPDEST PUSH1 0x4 DUP2 ADD SLOAD PUSH1 0xFF AND ISZERO PUSH2 0x5D8 JUMPI PUSH1 0x40 MLOAD PUSH4 0x6507689F PUSH1 0xE0 SHL DUP2 MSTORE PUSH1 0x4 ADD PUSH1 0x40 MLOAD DUP1 SWAP2 SUB SWAP1 REVERT JUMPDEST PUSH1 0x1 DUP2 ADD SLOAD PUSH1 0x1 PUSH1 0x1 PUSH1 0xA0 SHL SUB AND CALLER EQ PUSH2 0x605 JUMPI PUSH1 0x40 MLOAD PUSH4 0x60B39BC5 PUSH1 0xE0 SHL DUP2 MSTORE PUSH1 0x4 ADD PUSH1 0x40 MLOAD DUP1 SWAP2 SUB SWAP1 REVERT JUMPDEST PUSH1 0x4 DUP2 ADD DUP1 SLOAD PUSH1 0xFF NOT AND PUSH1 0x1 SWAP1 DUP2 OR SWAP1 SWAP2 SSTORE DUP2 ADD SLOAD PUSH1 0x2 DUP3 ADD SLOAD PUSH2 0x658 SWAP2 PUSH32 0x0 PUSH1 0x1 PUSH1 0x1 PUSH1 0xA0 SHL SUB SWAP1 DUP2 AND SWAP3 SWAP2 AND SWAP1 PUSH2 0xDB1 JUMP JUMPDEST PUSH1 0x1 DUP2 ADD SLOAD PUSH1 0x2 DUP3 ADD SLOAD PUSH1 0x40 DUP1 MLOAD SWAP2 DUP3 MSTORE TIMESTAMP PUSH1 0x20 DUP4 ADD MSTORE PUSH1 0x1 PUSH1 0x1 PUSH1 0xA0 SHL SUB SWAP1 SWAP3 AND SWAP2 DUP5 SWAP2 PUSH32 0x3DBB1A26F29AEF1264C12CA1285DEB60CCA5666D8B17100C7EA1602C0A4014F6 SWAP2 ADD PUSH2 0x55C JUMP JUMPDEST PUSH2 0x6AD PUSH2 0xE15 JUMP JUMPDEST PUSH2 0x6D3 PUSH2 0x6C2 PUSH1 0x1 SLOAD PUSH1 0x1 PUSH1 0x1 PUSH1 0xA0 SHL SUB AND SWAP1 JUMP JUMPDEST PUSH1 0x1 PUSH1 0x1 PUSH1 0xA0 SHL SUB DUP5 AND SWAP1 DUP4 PUSH2 0xDB1 JUMP JUMPDEST POP POP JUMP JUMPDEST PUSH1 0x40 DUP1 MLOAD PUSH1 0xC0 DUP2 ADD DUP3 MSTORE PUSH1 0x0 DUP1 DUP3 MSTORE PUSH1 0x20 DUP3 ADD DUP2 SWAP1 MSTORE SWAP2 DUP2 ADD DUP3 SWAP1 MSTORE PUSH1 0x60 DUP2 ADD DUP3 SWAP1 MSTORE PUSH1 0x80 DUP2 ADD DUP3 SWAP1 MSTORE PUSH1 0xA0 DUP2 ADD SWAP2 SWAP1 SWAP2 MSTORE PUSH1 0x0 DUP3 DUP2 MSTORE PUSH1 0x3 PUSH1 0x20 MSTORE PUSH1 0x40 SWAP1 KECCAK256 PUSH1 0x4 ADD SLOAD PUSH2 0x100 SWAP1 DIV PUSH1 0xFF AND PUSH2 0x740 JUMPI PUSH1 0x40 MLOAD PUSH4 0x31FB878F PUSH1 0xE0 SHL DUP2 MSTORE PUSH1 0x4 ADD PUSH1 0x40 MLOAD DUP1 SWAP2 SUB SWAP1 REVERT JUMPDEST POP PUSH1 0x0 SWAP1 DUP2 MSTORE PUSH1 0x3 PUSH1 0x20 DUP2 DUP2 MSTORE PUSH1 0x40 SWAP3 DUP4 SWAP1 KECCAK256 DUP4 MLOAD PUSH1 0xC0 DUP2 ADD DUP6 MSTORE DUP2 SLOAD PUSH1 0x1 PUSH1 0x1 PUSH1 0xA0 SHL SUB SWAP1 DUP2 AND DUP3 MSTORE PUSH1 0x1 DUP4 ADD SLOAD AND SWAP3 DUP2 ADD SWAP3 SWAP1 SWAP3 MSTORE PUSH1 0x2 DUP2 ADD SLOAD SWAP4 DUP3 ADD SWAP4 SWAP1 SWAP4 MSTORE SWAP1 DUP3 ADD SLOAD PUSH1 0x60 DUP3 ADD MSTORE PUSH1 0x4 SWAP1 SWAP2 ADD SLOAD PUSH1 0xFF DUP1 DUP3 AND ISZERO ISZERO PUSH1 0x80 DUP5 ADD MSTORE PUSH2 0x100 SWAP1 SWAP2 DIV AND ISZERO ISZERO PUSH1 0xA0 DUP3 ADD MSTORE SWAP1 JUMP JUMPDEST PUSH1 0x0 DUP3 DUP2 MSTORE PUSH1 0x3 PUSH1 0x20 DUP2 DUP2 MSTORE PUSH1 0x40 DUP1 DUP5 KECCAK256 DUP2 MLOAD PUSH1 0xC0 DUP2 ADD DUP4 MSTORE DUP2 SLOAD PUSH1 0x1 PUSH1 0x1 PUSH1 0xA0 SHL SUB SWAP1 DUP2 AND DUP3 MSTORE PUSH1 0x1 DUP4 ADD SLOAD AND SWAP4 DUP2 ADD SWAP4 SWAP1 SWAP4 MSTORE PUSH1 0x2 DUP2 ADD SLOAD SWAP2 DUP4 ADD SWAP2 SWAP1 SWAP2 MSTORE SWAP2 DUP3 ADD SLOAD PUSH1 0x60 DUP3 ADD MSTORE PUSH1 0x4 SWAP1 SWAP2 ADD SLOAD PUSH1 0xFF DUP1 DUP3 AND ISZERO ISZERO PUSH1 0x80 DUP5 ADD MSTORE PUSH2 0x100 SWAP1 SWAP2 DIV AND ISZERO DUP1 ISZERO PUSH1 0xA0 DUP4 ADD DUP2 SWAP1 MSTORE SWAP1 PUSH2 0x829 JUMPI POP DUP1 PUSH1 0x80 ADD MLOAD ISZERO JUMPDEST DUP1 ISZERO PUSH2 0x84A JUMPI POP DUP3 PUSH1 0x1 PUSH1 0x1 PUSH1 0xA0 SHL SUB AND DUP2 PUSH1 0x20 ADD MLOAD PUSH1 0x1 PUSH1 0x1 PUSH1 0xA0 SHL SUB AND EQ JUMPDEST SWAP2 POP POP JUMPDEST SWAP3 SWAP2 POP POP JUMP JUMPDEST PUSH1 0x1 PUSH1 0x1 PUSH1 0xA0 SHL SUB DUP2 AND PUSH1 0x0 SWAP1 DUP2 MSTORE PUSH1 0x4 PUSH1 0x20 SWAP1 DUP2 MSTORE PUSH1 0x40 SWAP2 DUP3 SWAP1 KECCAK256 DUP1 SLOAD DUP4 MLOAD DUP2 DUP5 MUL DUP2 ADD DUP5 ADD SWAP1 SWAP5 MSTORE DUP1 DUP5 MSTORE PUSH1 0x60 SWAP4 SWAP3 DUP4 ADD DUP3 DUP3 DUP1 ISZERO PUSH2 0x8B4 JUMPI PUSH1 0x20 MUL DUP3 ADD SWAP2 SWAP1 PUSH1 0x0 MSTORE PUSH1 0x20 PUSH1 0x0 KECCAK256 SWAP1 JUMPDEST DUP2 SLOAD DUP2 MSTORE PUSH1 0x20 ADD SWAP1 PUSH1 0x1 ADD SWAP1 DUP1 DUP4 GT PUSH2 0x8A0 JUMPI JUMPDEST POP POP POP POP POP SWAP1 POP SWAP2 SWAP1 POP JUMP JUMPDEST PUSH1 0x1 PUSH1 0x1 PUSH1 0xA0 SHL SUB DUP2 AND PUSH1 0x0 SWAP1 DUP2 MSTORE PUSH1 0x5 PUSH1 0x20 SWAP1 DUP2 MSTORE PUSH1 0x40 SWAP2 DUP3 SWAP1 KECCAK256 DUP1 SLOAD DUP4 MLOAD DUP2 DUP5 MUL DUP2 ADD DUP5 ADD SWAP1 SWAP5 MSTORE DUP1 DUP5 MSTORE PUSH1 0x60 SWAP4 SWAP3 DUP4 ADD DUP3 DUP3 DUP1 ISZERO PUSH2 0x8B4 JUMPI PUSH1 0x20 MUL DUP3 ADD SWAP2 SWAP1 PUSH1 0x0 MSTORE PUSH1 0x20 PUSH1 0x0 KECCAK256 SWAP1 DUP2 SLOAD DUP2 MSTORE PUSH1 0x20 ADD SWAP1 PUSH1 0x1 ADD SWAP1 DUP1 DUP4 GT PUSH2 0x8A0 JUMPI POP POP POP POP POP SWAP1 POP SWAP2 SWAP1 POP JUMP JUMPDEST PUSH1 0x0 PUSH2 0x934 PUSH2 0xD87 JUMP JUMPDEST DUP2 PUSH1 0x0 SUB PUSH2 0x955 JUMPI PUSH1 0x40 MLOAD PUSH4 0x162908E3 PUSH1 0xE1 SHL DUP2 MSTORE PUSH1 0x4 ADD PUSH1 0x40 MLOAD DUP1 SWAP2 SUB SWAP1 REVERT JUMPDEST PUSH1 0x1 PUSH1 0x1 PUSH1 0xA0 SHL SUB DUP4 AND PUSH2 0x9BD JUMPI PUSH1 0x40 MLOAD PUSH3 0x461BCD PUSH1 0xE5 SHL DUP2 MSTORE PUSH1 0x20 PUSH1 0x4 DUP3 ADD MSTORE PUSH1 0x29 PUSH1 0x24 DUP3 ADD MSTORE PUSH32 0x42617365426F6F6B457363726F773A20496E76616C696420726563697069656E PUSH1 0x44 DUP3 ADD MSTORE PUSH9 0x742061646472657373 PUSH1 0xB8 SHL PUSH1 0x64 DUP3 ADD MSTORE PUSH1 0x84 ADD PUSH2 0x437 JUMP JUMPDEST CALLER PUSH1 0x1 PUSH1 0x1 PUSH1 0xA0 SHL SUB DUP5 AND SUB PUSH2 0xA25 JUMPI PUSH1 0x40 MLOAD PUSH3 0x461BCD PUSH1 0xE5 SHL DUP2 MSTORE PUSH1 0x20 PUSH1 0x4 DUP3 ADD MSTORE PUSH1 0x27 PUSH1 0x24 DUP3 ADD MSTORE PUSH32 0x42617365426F6F6B457363726F773A2043616E6E6F742073656E6420746F2079 PUSH1 0x44 DUP3 ADD MSTORE PUSH7 0x37BAB939B2B633 PUSH1 0xC9 SHL PUSH1 0x64 DUP3 ADD MSTORE PUSH1 0x84 ADD PUSH2 0x437 JUMP JUMPDEST PUSH1 0x40 MLOAD PUSH4 0x6EB1769F PUSH1 0xE1 SHL DUP2 MSTORE CALLER PUSH1 0x4 DUP3 ADD MSTORE ADDRESS PUSH1 0x24 DUP3 ADD MSTORE PUSH1 0x0 SWAP1 PUSH32 0x0 PUSH1 0x1 PUSH1 0x1 PUSH1 0xA0 SHL SUB AND SWAP1 PUSH4 0xDD62ED3E SWAP1 PUSH1 0x44 ADD PUSH1 0x20 PUSH1 0x40 MLOAD DUP1 DUP4 SUB DUP2 DUP7 GAS STATICCALL ISZERO DUP1 ISZERO PUSH2 0xA92 JUMPI RETURNDATASIZE PUSH1 0x0 DUP1 RETURNDATACOPY RETURNDATASIZE PUSH1 0x0 REVERT JUMPDEST POP POP POP POP PUSH1 0x40 MLOAD RETURNDATASIZE PUSH1 0x1F NOT PUSH1 0x1F DUP3 ADD AND DUP3 ADD DUP1 PUSH1 0x40 MSTORE POP DUP2 ADD SWAP1 PUSH2 0xAB6 SWAP2 SWAP1 PUSH2 0x105E JUMP JUMPDEST SWAP1 POP DUP3 DUP2 LT ISZERO PUSH2 0xAD9 JUMPI PUSH1 0x40 MLOAD PUSH4 0x13BE252B PUSH1 0xE0 SHL DUP2 MSTORE PUSH1 0x4 ADD PUSH1 0x40 MLOAD DUP1 SWAP2 SUB SWAP1 REVERT JUMPDEST PUSH2 0xB0E PUSH1 0x1 PUSH1 0x1 PUSH1 0xA0 SHL SUB PUSH32 0x0 AND CALLER ADDRESS DUP7 PUSH2 0xE42 JUMP JUMPDEST PUSH1 0x2 PUSH1 0x0 DUP2 SLOAD PUSH2 0xB1D SWAP1 PUSH2 0x1077 JUMP JUMPDEST SWAP2 DUP3 SWAP1 SSTORE POP PUSH1 0x40 DUP1 MLOAD PUSH1 0xC0 DUP2 ADD DUP3 MSTORE CALLER DUP1 DUP3 MSTORE PUSH1 0x1 PUSH1 0x1 PUSH1 0xA0 SHL SUB DUP9 DUP2 AND PUSH1 0x20 DUP1 DUP6 ADD DUP3 DUP2 MSTORE DUP6 DUP8 ADD DUP12 DUP2 MSTORE TIMESTAMP PUSH1 0x60 DUP9 ADD DUP2 DUP2 MSTORE PUSH1 0x0 PUSH1 0x80 DUP11 ADD DUP2 DUP2 MSTORE PUSH1 0x1 PUSH1 0xA0 DUP13 ADD DUP2 DUP2 MSTORE DUP15 DUP5 MSTORE PUSH1 0x3 DUP1 DUP11 MSTORE DUP15 DUP6 KECCAK256 SWAP14 MLOAD DUP15 SLOAD SWAP1 DUP14 AND PUSH1 0x1 PUSH1 0x1 PUSH1 0xA0 SHL SUB NOT SWAP2 DUP3 AND OR DUP16 SSTORE SWAP9 MLOAD DUP15 DUP5 ADD DUP1 SLOAD SWAP2 SWAP1 SWAP14 AND SWAP10 AND SWAP9 SWAP1 SWAP9 OR SWAP1 SWAP11 SSTORE SWAP5 MLOAD PUSH1 0x2 DUP13 ADD SSTORE SWAP2 MLOAD SWAP5 DUP11 ADD SWAP5 SWAP1 SWAP5 SSTORE MLOAD PUSH1 0x4 SWAP9 DUP10 ADD DUP1 SLOAD SWAP8 MLOAD ISZERO ISZERO PUSH2 0x100 MUL PUSH2 0xFF00 NOT SWAP3 ISZERO ISZERO SWAP3 SWAP1 SWAP3 AND PUSH2 0xFFFF NOT SWAP1 SWAP9 AND SWAP8 SWAP1 SWAP8 OR OR SWAP1 SWAP6 SSTORE DUP6 DUP3 MSTORE SWAP6 DUP3 MSTORE DUP7 DUP2 KECCAK256 DUP1 SLOAD DUP1 DUP9 ADD DUP3 SSTORE SWAP1 DUP3 MSTORE DUP3 DUP3 KECCAK256 ADD DUP9 SWAP1 SSTORE DUP3 DUP2 MSTORE PUSH1 0x5 DUP3 MSTORE DUP7 DUP2 KECCAK256 DUP1 SLOAD SWAP7 DUP8 ADD DUP2 SSTORE DUP2 MSTORE KECCAK256 SWAP1 SWAP4 ADD DUP6 SWAP1 SSTORE SWAP3 MLOAD SWAP4 SWAP6 POP SWAP1 SWAP3 SWAP1 SWAP2 DUP6 SWAP2 PUSH32 0x3D423AAE28E39CAC21D8D8C5F4B0BB7D7476DF8FCC4E53E433C750774AC0E46F SWAP2 PUSH2 0xC48 SWAP2 DUP10 SWAP2 SWAP1 SWAP2 DUP3 MSTORE PUSH1 0x20 DUP3 ADD MSTORE PUSH1 0x40 ADD SWAP1 JUMP JUMPDEST PUSH1 0x40 MLOAD DUP1 SWAP2 SUB SWAP1 LOG4 POP PUSH2 0x84E PUSH1 0x1 PUSH1 0x0 SSTORE JUMP JUMPDEST PUSH1 0x40 MLOAD PUSH4 0x70A08231 PUSH1 0xE0 SHL DUP2 MSTORE ADDRESS PUSH1 0x4 DUP3 ADD MSTORE PUSH1 0x0 SWAP1 PUSH32 0x0 PUSH1 0x1 PUSH1 0x1 PUSH1 0xA0 SHL SUB AND SWAP1 PUSH4 0x70A08231 SWAP1 PUSH1 0x24 ADD PUSH1 0x20 PUSH1 0x40 MLOAD DUP1 DUP4 SUB DUP2 DUP7 GAS STATICCALL ISZERO DUP1 ISZERO PUSH2 0xCC2 JUMPI RETURNDATASIZE PUSH1 0x0 DUP1 RETURNDATACOPY RETURNDATASIZE PUSH1 0x0 REVERT JUMPDEST POP POP POP POP PUSH1 0x40 MLOAD RETURNDATASIZE PUSH1 0x1F NOT PUSH1 0x1F DUP3 ADD AND DUP3 ADD DUP1 PUSH1 0x40 MSTORE POP DUP2 ADD SWAP1 PUSH2 0xCE6 SWAP2 SWAP1 PUSH2 0x105E JUMP JUMPDEST SWAP1 POP SWAP1 JUMP JUMPDEST PUSH2 0xCF3 PUSH2 0xE15 JUMP JUMPDEST PUSH2 0xCFD PUSH1 0x0 PUSH2 0xE81 JUMP JUMPDEST JUMP JUMPDEST PUSH1 0x5 PUSH1 0x20 MSTORE DUP2 PUSH1 0x0 MSTORE PUSH1 0x40 PUSH1 0x0 KECCAK256 DUP2 DUP2 SLOAD DUP2 LT PUSH2 0xD1B JUMPI PUSH1 0x0 DUP1 REVERT JUMPDEST SWAP1 PUSH1 0x0 MSTORE PUSH1 0x20 PUSH1 0x0 KECCAK256 ADD PUSH1 0x0 SWAP2 POP SWAP2 POP POP SLOAD DUP2 JUMP JUMPDEST PUSH1 0x4 PUSH1 0x20 MSTORE DUP2 PUSH1 0x0 MSTORE PUSH1 0x40 PUSH1 0x0 KECCAK256 DUP2 DUP2 SLOAD DUP2 LT PUSH2 0xD1B JUMPI PUSH1 0x0 DUP1 REVERT JUMPDEST PUSH2 0xD54 PUSH2 0xE15 JUMP JUMPDEST PUSH1 0x1 PUSH1 0x1 PUSH1 0xA0 SHL SUB DUP2 AND PUSH2 0xD7E JUMPI PUSH1 0x40 MLOAD PUSH4 0x1E4FBDF7 PUSH1 0xE0 SHL DUP2 MSTORE PUSH1 0x0 PUSH1 0x4 DUP3 ADD MSTORE PUSH1 0x24 ADD PUSH2 0x437 JUMP JUMPDEST PUSH2 0x56F DUP2 PUSH2 0xE81 JUMP JUMPDEST PUSH1 0x2 PUSH1 0x0 SLOAD SUB PUSH2 0xDAA JUMPI PUSH1 0x40 MLOAD PUSH4 0x3EE5AEB5 PUSH1 0xE0 SHL DUP2 MSTORE PUSH1 0x4 ADD PUSH1 0x40 MLOAD DUP1 SWAP2 SUB SWAP1 REVERT JUMPDEST PUSH1 0x2 PUSH1 0x0 SSTORE JUMP JUMPDEST PUSH1 0x40 MLOAD PUSH1 0x1 PUSH1 0x1 PUSH1 0xA0 SHL SUB DUP4 DUP2 AND PUSH1 0x24 DUP4 ADD MSTORE PUSH1 0x44 DUP3 ADD DUP4 SWAP1 MSTORE PUSH2 0xE10 SWAP2 DUP6 SWAP2 DUP3 AND SWAP1 PUSH4 0xA9059CBB SWAP1 PUSH1 0x64 ADD JUMPDEST PUSH1 0x40 MLOAD PUSH1 0x20 DUP2 DUP4 SUB SUB DUP2 MSTORE SWAP1 PUSH1 0x40 MSTORE SWAP2 POP PUSH1 0xE0 SHL PUSH1 0x20 DUP3 ADD DUP1 MLOAD PUSH1 0x1 PUSH1 0x1 PUSH1 0xE0 SHL SUB DUP4 DUP2 DUP4 AND OR DUP4 MSTORE POP POP POP POP PUSH2 0xED3 JUMP JUMPDEST POP POP POP JUMP JUMPDEST PUSH1 0x1 SLOAD PUSH1 0x1 PUSH1 0x1 PUSH1 0xA0 SHL SUB AND CALLER EQ PUSH2 0xCFD JUMPI PUSH1 0x40 MLOAD PUSH4 0x118CDAA7 PUSH1 0xE0 SHL DUP2 MSTORE CALLER PUSH1 0x4 DUP3 ADD MSTORE PUSH1 0x24 ADD PUSH2 0x437 JUMP JUMPDEST PUSH1 0x40 MLOAD PUSH1 0x1 PUSH1 0x1 PUSH1 0xA0 SHL SUB DUP5 DUP2 AND PUSH1 0x24 DUP4 ADD MSTORE DUP4 DUP2 AND PUSH1 0x44 DUP4 ADD MSTORE PUSH1 0x64 DUP3 ADD DUP4 SWAP1 MSTORE PUSH2 0xE7B SWAP2 DUP7 SWAP2 DUP3 AND SWAP1 PUSH4 0x23B872DD SWAP1 PUSH1 0x84 ADD PUSH2 0xDDE JUMP JUMPDEST POP POP POP POP JUMP JUMPDEST PUSH1 0x1 DUP1 SLOAD PUSH1 0x1 PUSH1 0x1 PUSH1 0xA0 SHL SUB DUP4 DUP2 AND PUSH1 0x1 PUSH1 0x1 PUSH1 0xA0 SHL SUB NOT DUP4 AND DUP2 OR SWAP1 SWAP4 SSTORE PUSH1 0x40 MLOAD SWAP2 AND SWAP2 SWAP1 DUP3 SWAP1 PUSH32 0x8BE0079C531659141344CD1FD0A4F28419497F9722A3DAAFE3B4186F6B6457E0 SWAP1 PUSH1 0x0 SWAP1 LOG3 POP POP JUMP JUMPDEST PUSH1 0x0 DUP1 PUSH1 0x20 PUSH1 0x0 DUP5 MLOAD PUSH1 0x20 DUP7 ADD PUSH1 0x0 DUP9 GAS CALL DUP1 PUSH2 0xEF6 JUMPI PUSH1 0x40 MLOAD RETURNDATASIZE PUSH1 0x0 DUP3 RETURNDATACOPY RETURNDATASIZE DUP2 REVERT JUMPDEST POP POP PUSH1 0x0 MLOAD RETURNDATASIZE SWAP2 POP DUP2 ISZERO PUSH2 0xF0E JUMPI DUP1 PUSH1 0x1 EQ ISZERO PUSH2 0xF1B JUMP JUMPDEST PUSH1 0x1 PUSH1 0x1 PUSH1 0xA0 SHL SUB DUP5 AND EXTCODESIZE ISZERO JUMPDEST ISZERO PUSH2 0xE7B JUMPI PUSH1 0x40 MLOAD PUSH4 0x5274AFE7 PUSH1 0xE0 SHL DUP2 MSTORE PUSH1 0x1 PUSH1 0x1 PUSH1 0xA0 SHL SUB DUP6 AND PUSH1 0x4 DUP3 ADD MSTORE PUSH1 0x24 ADD PUSH2 0x437 JUMP JUMPDEST PUSH1 0x0 PUSH1 0x20 DUP3 DUP5 SUB SLT ISZERO PUSH2 0xF56 JUMPI PUSH1 0x0 DUP1 REVERT JUMPDEST POP CALLDATALOAD SWAP2 SWAP1 POP JUMP JUMPDEST DUP1 CALLDATALOAD PUSH1 0x1 PUSH1 0x1 PUSH1 0xA0 SHL SUB DUP2 AND DUP2 EQ PUSH2 0xF74 JUMPI PUSH1 0x0 DUP1 REVERT JUMPDEST SWAP2 SWAP1 POP JUMP JUMPDEST PUSH1 0x0 DUP1 PUSH1 0x40 DUP4 DUP6 SUB SLT ISZERO PUSH2 0xF8C JUMPI PUSH1 0x0 DUP1 REVERT JUMPDEST PUSH2 0xF95 DUP4 PUSH2 0xF5D JUMP JUMPDEST SWAP5 PUSH1 0x20 SWAP4 SWAP1 SWAP4 ADD CALLDATALOAD SWAP4 POP POP POP JUMP JUMPDEST PUSH1 0x0 DUP1 PUSH1 0x40 DUP4 DUP6 SUB SLT ISZERO PUSH2 0xFB6 JUMPI PUSH1 0x0 DUP1 REVERT JUMPDEST DUP3 CALLDATALOAD SWAP2 POP PUSH2 0xFC6 PUSH1 0x20 DUP5 ADD PUSH2 0xF5D JUMP JUMPDEST SWAP1 POP SWAP3 POP SWAP3 SWAP1 POP JUMP JUMPDEST PUSH1 0x0 PUSH1 0x20 DUP3 DUP5 SUB SLT ISZERO PUSH2 0xFE1 JUMPI PUSH1 0x0 DUP1 REVERT JUMPDEST PUSH2 0xFEA DUP3 PUSH2 0xF5D JUMP JUMPDEST SWAP4 SWAP3 POP POP POP JUMP JUMPDEST PUSH1 0x20 DUP1 DUP3 MSTORE DUP3 MLOAD DUP3 DUP3 ADD DUP2 SWAP1 MSTORE PUSH1 0x0 SWAP2 SWAP1 DUP5 DUP3 ADD SWAP1 PUSH1 0x40 DUP6 ADD SWAP1 DUP5 JUMPDEST DUP2 DUP2 LT ISZERO PUSH2 0x1029 JUMPI DUP4 MLOAD DUP4 MSTORE SWAP3 DUP5 ADD SWAP3 SWAP2 DUP5 ADD SWAP2 PUSH1 0x1 ADD PUSH2 0x100D JUMP JUMPDEST POP SWAP1 SWAP7 SWAP6 POP POP POP POP POP POP JUMP JUMPDEST PUSH4 0x4E487B71 PUSH1 0xE0 SHL PUSH1 0x0 MSTORE PUSH1 0x11 PUSH1 0x4 MSTORE PUSH1 0x24 PUSH1 0x0 REVERT JUMPDEST DUP1 DUP3 ADD DUP1 DUP3 GT ISZERO PUSH2 0x84E JUMPI PUSH2 0x84E PUSH2 0x1035 JUMP JUMPDEST PUSH1 0x0 PUSH1 0x20 DUP3 DUP5 SUB SLT ISZERO PUSH2 0x1070 JUMPI PUSH1 0x0 DUP1 REVERT JUMPDEST POP MLOAD SWAP2 SWAP1 POP JUMP JUMPDEST PUSH1 0x0 PUSH1 0x1 DUP3 ADD PUSH2 0x1089 JUMPI PUSH2 0x1089 PUSH2 0x1035 JUMP JUMPDEST POP PUSH1 0x1 ADD SWAP1 JUMP INVALID LOG2 PUSH5 0x6970667358 0x22 SLT KECCAK256 PUSH20 0x86A896EDF0DECC18525BA6376BAEE2186DE25CF9 0xD8 0xCA 0x21 0xC1 DUP14 SWAP5 DUP6 SWAP11 0xBB DUP10 0xD8 PUSH5 0x736F6C6343 STOP ADDMOD EQ STOP CALLER "
        },
        "methodIdentifiers": {
          "emergencyWithdrawal(uint256)": "0039522c",
          "escrowTransactions(uint256)": "cf1e37ad",
          "getContractBalance()": "6f9fb98a",
          "getRecipientTransactions(address)": "6719d530",
          "getSenderTransactions(address)": "5976a838",
          "getTransaction(uint256)": "33ea3dc8",
          "getTransactionCounter()": "2dd1b86b",
          "isWithdrawable(uint256,address)": "44155d61",
          "owner()": "8da5cb5b",
          "ownerEmergencyWithdraw(address,uint256)": "20b9c0ba",
          "recipientTransactions(address,uint256)": "9a35740c",
          "renounceOwnership()": "715018a6",
          "sendFunds(address,uint256)": "6f64234e",
          "senderTransactions(address,uint256)": "9f2b0505",
          "transferOwnership(address)": "f2fde38b",
          "usdcToken()": "11eac855",
          "withdrawFunds(uint256)": "155dd5ee"
        }
      }
    }
  }
}